:020000040800F2
:10000000E00B0020910100087D0E00083D0A000869
:10001000790E0008D90600084321000800000000FE
:10002000000000000000000000000000F9180008B7
:1000300031070008000000002F160008611A0008B0
:10004000AB010008AB010008AB010008AB010008E0
:10005000AB010008AB010008AB010008AB010008D0
:10006000AB010008AB010008AB010008AB010008C0
:10007000AB010008AB010008AB010008AB010008B0
:10008000AB010008AB010008AB010008AB010008A0
:10009000AB010008AB010008AB010008AB01000890
:1000A000AB010008AB010008AB010008AB01000880
:1000B000AB010008AB010008AB010008AB01000870
:1000C000AB010008AB010008AB010008AB01000860
:1000D000AB010008211F0008AB010008AB010008BC
:1000E000AB010008AB010008AB01000800F002F80A
:1000F00000F03FF80AA090E8000C82448344AAF183
:100100000107DA4501D100F034F8AFF2090EBAE880
:100110000F0013F0010F18BFFB1A43F0010318473B
:10012000A4430000C4430000103A24BF78C878C13B
:10013000FAD8520724BF30C830C144BF04680C60ED
:10014000704700000023002400250026103A28BF35
:1001500078C1FBD8520728BF30C148BF0B60704739
:10016000642900F07780002070471FB51FBD10B5CF
:1001700010BD00F037F91146FFF7F7FF02F08AF8DB
:1001800000F055F903B4FFF7F2FF03BC01F0FCFFE8
:100190000948804709480047FEE7FEE7FEE7FEE71B
:1001A000FEE7FEE7FEE7FEE7FEE7FEE70448054957
:1001B000054A064B70470000651A0008ED0000086C
:1001C000E0050020E00B0020E0070020E007002011
:1001D000704700000FB4044910B503AA029800F05C
:1001E000D3F810BC5DF814FB2C0000202DE9F04181
:1001F0000E460446002020622046E168884730B35E
:10020000252805D0D4E901219047206A401CF2E757
:10021000E168204600278847050018D0A5F1410075
:10022000192802D820354FF4006732462946204667
:100230002760FFF795FF40B1012804D0F61D26F096
:1002400007060836D8E7361DD6E72846DAE7206ADB
:10025000BDE8F0812DE9F0410646002410687529BB
:10026000314616A510D0AFF30080002802DA4042D4
:1002700013A507E031688A0701D512A502E04907F6
:1002800004D511A5012401E0AFF3008000210A226A
:1002900006F1240709E0B0FBF2FCB0FBF2F302FB2D
:1002A0001C00303078541846491C0028F3D12346EE
:1002B0002A463046BDE8F04100F00CB800000000CE
:1002C0002D0000002B000000200000007047704748
:1002D000704770472DE9F0470D469946924604460F
:1002E00000F124080168880604D5E06921F01001B6
:1002F000216000E00120A84201DD471B00E000274B
:10030000A1697A1902EB0900081AA0612078C006D9
:1003100002D42046AFF30080002608E0D4E9012192
:100320001AF806009047206A401C761C20624E4551
:10033000F4DB2078C0060AD52046AFF3008006E043
:10034000D4E9012130209047206A401C2062381EE9
:10035000A7F10107F4DC07E0D4E9012118F8050052
:100360009047206A401C2062281EA5F10105F3DC9D
:100370002046AFF300802078000602D50220BDE8B9
:10038000F0870120FBE70000074B70B50D467B446A
:1003900000F011F80446284600F020F810B14FF0A4
:1003A000FF3070BD204670BD8B1E000001694A1CE5
:1003B00002610878704700B58FB0CDE901310021A6
:1003C000059105497944CDE9031011466846FFF7C8
:1003D0000DFF0FB000BD0000E5FFFFFF007B00F048
:1003E00080007047754600F029F8AE460500694662
:1003F000534620F00700854618B020B5FFF7D6FE1B
:10040000BDE820404FF000064FF000074FF0000815
:100410004FF0000B21F00701AC46ACE8C009ACE896
:10042000C009ACE8C009ACE8C0098D467047044675
:10043000AFF300802046FFF7A5FE0000004870479C
:100440008005002021B1826842F00102826003E051
:10045000826822F001028260704721B1826842F412
:100460008072826003E0826822F48072826070474A
:10047000014600208A6802F004020AB1012000E06F
:1004800000207047014600208A6802F008020AB185
:10049000012000E00020704730B502460020002314
:1004A00050680F4C20400D790C6844EA0524204325
:1004B000506090680B4C2040D1E902542C434D7998
:1004C00044EA450420439060D06A20F470000C7C1C
:1004D000641EE4B2234340EA0350D06230BD000002
:1004E000FFFEF0FFFDF7F1FFF0B504460D460020DA
:1004F0000021092D11DDE068A5F10A0606EB46078B
:10050000072606FA07F18843A5F10A0606EB460618
:1005100003FA06F10843E0600CE0206905EB4507AB
:10052000072606FA07F1884305EB450603FA06F1AC
:1005300008432061072A0FDA606B561E06EB860718
:100540001F2606FA07F18843561E06EB860605FAB3
:1005500006F10843606322E00D2A0FDA206BD61FF4
:1005600006EB86071F2606FA07F18843D61F06EB1F
:10057000860605FA06F10843206310E0E06AA2F15E
:100580000D0606EB86071F2606FA07F18843A2F13F
:100590000D0606EB860605FA06F10843E062F0BD9B
:1005A000816841F008018160704721B1826842F49E
:1005B000A002826003E0826822F4A0028260704799
:1005C000816841F0040181607047000000B591B07E
:1005D0000121480201F058F80121082001F054F8E7
:1005E0000121084601F030F84FF4004001F020F8F6
:1005F00000208DF843000320ADF840008DF8420044
:1006000010A9314800F0EEF80523012208212F48F7
:10061000FFF76AFF0523022209212C48FFF764FF38
:1006200000200B900E904FF460200D9001208DF86B
:1006300031008DF8300002208DF83C000BA92348D2
:10064000FFF72AFF21484C300090801506900020CB
:1006500004901F4801904FF480600790802005901F
:1006600000200290042003902020089000200A908F
:100670004FF4805009906946164800F03BF801217C
:10068000144800F02BF801211048FFF7E6FE012185
:100690000E48FFF7D7FE0D48FFF782FF00BF0B485B
:1006A000FFF7F0FE0128FAD00848FFF789FF00BFE6
:1006B0000648FFF7DDFE0128FAD001210348FFF7C5
:1006C00074FF11B000BD0000000C01400024014087
:1006D000340000200800024000BFFEE721B102689C
:1006E00042F00102026004E002684FF6FE731A4015
:1006F0000260704710B50022026847F6F0739A4313
:100700000C6A8B6823430C6923434C6923438C692F
:100710002343CC6923434C6A23438C6A23431A4303
:100720000260CB6843600B6883604B68C36010BD98
:100730007047000010B5024801F011FB00B210BD77
:100740000008004000B587B00121042000F08CFFB4
:100750000121082000F098FF48208DF81B00C020E0
:10076000ADF8180003208DF81A0006A91B4800F008
:1007700039F80020ADF81200ADF80E004FF6FF700A
:10078000ADF810000020ADF80C008DF8140003A99E
:10079000134801F073FB684601F03AFB0020ADF806
:1007A00000000F20ADF8080069460D4801F0DAFAA4
:1007B0000420ADF800000F20ADF808006946084895
:1007C00001F0D0FA00231A460321054801F0A6FAE9
:1007D0000121034801F096FA07B000BD000C01406A
:1007E000000800402DE9F0410246002500260020C7
:1007F00000230024002791F803C00CF00F0591F8A6
:1008000003C00CF0100CBCF1000F03D091F802C033
:100810004CEA050591F800C0BCF1000F31D0146816
:1008200000202BE04FF0010C0CFA00F3B1F800C0EF
:100830000CEA03069E4220D183004FF00F0C0CFA05
:1008400003F7BC4305FA03FC4CEA040491F803C027
:10085000BCF1280F06D14FF0010C0CFA00FCC2F8D5
:1008600014C00AE091F803C0BCF1480F05D14FF065
:10087000010C0CFA00FCC2F810C0401C0828D1D3AF
:100880001460B1F800C0BCF1FF0F34DD54680020E3
:100890002EE000F1080C4FF0010808FA0CF3B1F853
:1008A00000C00CEA03069E4221D183004FF00F0CDA
:1008B0000CFA03F7BC4305FA03FC4CEA040491F874
:1008C00003C0BCF1280F05D100F1080C08FA0CF8A0
:1008D000C2F8148091F803C0BCF1480F07D100F1B1
:1008E000080C4FF0010808FA0CF8C2F81080401C00
:1008F0000828CED35460BDE8F0810000F0B50A4668
:10090000002300240021002500F00046B6F1004F2E
:1009100002D11D4EF16901E01B4E7168C0F3034521
:1009200083B200F44016B6F5401F08D121F0706183
:10093000154E766826F07066134F7E6012E000F464
:100940008016B6F5801F06D1032606FA05F4A143EA
:1009500041F0706106E0460D360103FA06F6B14338
:1009600041F0706122B1460D360103FA06F63143BB
:1009700000F00046B6F1004F02D1034EF16101E0F4
:10098000014E7160F0BD00000000014002460020F1
:1009900093680B400BB1012000E0002070474161DB
:1009A000704701617047000070B501F0CDFB04464F
:1009B00000F046F805462A4621461AA0FFF70AFC31
:1009C000162C09D1142D01D1152070BD182D01D17F
:1009D0001720FAE71620F8E71A2C09D1142D01D1B7
:1009E0001B20F2E7182D01D11920EEE71A20ECE7C1
:1009F000142D09D1162C01D11520E6E71A2C01D1AE
:100A00001B20E2E71420E0E7182D09D1162C01D1B4
:100A10001720DAE71A2C01D11920D6E71820D4E7DD
:100A20006220D2E7766572203D20256420202C20AC
:100A3000686F72203D2025640D0A000000BFFEE7AC
:100A40000021002003E00D4A52881144401C0A286E
:100A5000F9DB0A2091FBF0F1B1F5805F05DA40F691
:100A6000B830814201DB14207047B1F57A7F03DA98
:100A7000002901DB1820F7E70020F5E7340000200B
:100A800010B54FF400710C48FFF78BFF4FF48071E5
:100A90000948FFF786FF00F041F84FF4007106485F
:100AA000FFF77DFF00F03AF84FF480710248FFF73E
:100AB00076FF00F033F810BD000C014010B54FF484
:100AC00000710848FFF76BFF4FF480710548FFF78E
:100AD00068FF00F023F84FF400710248FFF761FF50
:100AE00010BD0000000C014010B54FF400710A4821
:100AF000FFF757FF00F012F84FF480710648FFF738
:100B000050FF00F00BF84FF480710348FFF747FFE8
:100B100000F004F810BD0000000C0140032000BFED
:100B20000100A0F10102D0B2FAD1704770B50446BD
:100B30000D4600264FF480419048FFF727FFB0B9DB
:100B40008FA0FFF747FB0A2001F042FB00BF4FF4E4
:100B500080418A48FFF71AFF0028F8D00A2001F0E8
:100B600037FB0220207009202870632070BD4FF4ED
:100B700000418248FFF70AFFB0B983A0FFF72AFBC4
:100B80000A2001F025FB00BF4FF400417B48FFF72E
:100B9000FDFE0028F8D00A2001F01AFB0220207088
:100BA000082028706320E1E720217448FFF7EEFE5B
:100BB000A8B977A0FFF70EFB0A2001F009FB00BFE0
:100BC00020216E48FFF7E2FE0028F9D00A2001F04C
:100BD000FFFA02202070012028706320C6E74FF43E
:100BE00000416D48FFF7D2FEA8B96CA0FFF7F2FAFA
:100BF0000A2001F0EDFA00BF4FF400416648FFF70C
:100C0000C5FE0028F8D00A2001F0E2FA0220207088
:100C100028706320AAE74FF480515F48FFF7B6FEC3
:100C2000B0B960A0FFF7D6FA0A2001F0D1FA00BFF0
:100C30004FF480515848FFF7A9FE0028F8D00A2049
:100C400001F0C6FA022020700320287063208DE78F
:100C50004FF480715048FFF799FEB0B953A0FFF7E9
:100C6000B9FA0A2001F0B4FA00BF4FF480714A4883
:100C7000FFF78CFE0028F8D00A2001F0A9FA022024
:100C8000207004202870632070E74FF40061424810
:100C9000FFF77CFEB0B947A0FFF79CFA0A2001F0ED
:100CA00097FA00BF4FF400613B48FFF76FFE002842
:100CB000F8D00A2001F08CFA022020700A20287057
:100CC000632053E701213448FFF760FEA8B93BA039
:100CD000FFF780FA0A2001F07BFA00BF01212E48BD
:100CE000FFF754FE0028F9D00A2001F071FA022023
:100CF000207007202870632038E74FF400511F4808
:100D0000FFF744FEB0B92FA0FFF764FA0A2001F004
:100D10005FFA00BF4FF400511848FFF737FE002874
:100D2000F8D00A2001F054FA022020700520287023
:100D300063201BE72648007801F07EFAC6B24EB168
:100D400024A0FFF747FA22480670032020702E7077
:100D500063200BE7FFF728FEC6B23EB121A0FFF7E4
:100D600039FA012020702E706220FFE623A0FFF7E1
:100D700031FA00202070287000BFF7E6000C014017
:100D8000313131310D0A0000323232320D0A0000A9
:100D9000333333330D0A0000000801403434343457
:100DA0000D0A0000353535350D0A00003636363669
:100DB000360D0A0037373737370D0A0038383838DC
:100DC0000D0A0000313031303130300D0A000000A2
:100DD0003300002031313131313131313131313174
:100DE000310D0A003131323132313231323131316B
:100DF00032313132313231310D0A00006262620D1E
:100E00000A00000008B50121042000F03DFC482044
:100E10008DF8030049F60110ADF8000003208DF8AD
:100E2000020069460748FFF7DDFC0121082000F0B9
:100E30002BFC4CF22000ADF8000069460248FFF799
:100E4000D1FC08BD00080140000C014008B501219B
:100E5000102000F019FC4FF40050ADF80000032002
:100E60008DF8020010208DF8030069460148FFF755
:100E7000B9FC08BD0010014000BFFEE7704700004C
:100E80001CB511A103C9CDE90001082000F0E8FC60
:100E900005226946302000F0F3F80522694610204B
:100EA00000F052F8002406E01DF80400A52800D048
:100EB00003E0601CC4B2052CF6DB00BF052C01D09A
:100EC00001201CBD0020FCE7A5A5A5A5A5000000EC
:100ED00000B585B001F0FCFA00F050FC0021174885
:100EE00000F0D2FC0020ADF800004FF48270ADF8A5
:100EF00002000020ADF80400ADF80600ADF80800CF
:100F00004FF40070ADF80A001820ADF80C00002076
:100F1000ADF80E000720ADF810006946074800F054
:100F2000CDFC0121054800F0AFFC00200449086019
:100F300001200449C1F8900105B000BD0030014016
:100F4000AC812142000021422DE9F04107460D46C7
:100F5000164600200A490860384600F057FC8046D3
:100F6000002405E0FF2000F051FC2855601CC4B2AD
:100F7000B442F7DB0120024908604046BDE8F08139
:100F80009001214270B504460020074908602046C0
:100F900000F03CFCFF2000F039FC0546012003492D
:100FA000C1F89001284670BD900121420000214205
:100FB00010B500201449086005221449302000F0C3
:100FC0005FF8052212492A2000F05AF80121212059
:100FD00000F074F80121222000F070F81A2124207A
:100FE00000F06CF82821252000F068F80F21262059
:100FF00000F064F80E21202000F060F8012005497F
:10100000C1F8AC0110BD0000AC812142A826000847
:10101000AD2600080080214270B50546102000F082
:101020001FFC00201449086020222946A02000F05F
:1010300027F801201149C1F8AC0100BF0E488438DF
:1010400000680028FAD10720FFF79CFF04462146DC
:10105000272000F033F804F0100028B1FF21E12030
:1010600000F02CF8102070BD04F0200008B1202002
:10107000F9E7FF20F7E70000AC8121420080214220
:101080002DE9F04107460C46154600200A49086044
:10109000384600F0BBFB8046002605E014F8010B43
:1010A00000F0B4FB701CC6B2AE42F7DB012002496F
:1010B00008604046BDE8F0819001214270B50546C8
:1010C0000C46002007490860284600F09FFB0646B2
:1010D000204600F09BFB01200349C1F890013046F7
:1010E00070BD0000900121420000214270B5002136
:1010F00000230F22C47804B3154C246804F4E06480
:10110000C4F5E064210AC1F10403CA40447804FA3A
:1011100003F184781440214309010E4C0678A1554F
:10112000047804F01F050124AC4005786D11AD0072
:1011300005F1E025C5F8004109E0047804F01F0539
:101140000124AC40044D0678761145F8264070BD68
:101150000CED00E000E400E080E100E070B5002468
:101160000CE0002506E00020074901EBC501085509
:10117000681CC5B2802DF6DB601CC4B2082CF0DB05
:1011800000F0F8F870BD00000001002010B5044622
:101190001CB90021A62000F02EFA012C03D1002159
:1011A000A72000F028FA10BD10B504463CB9002174
:1011B000C82000F020FA0021A12000F01CFA012C28
:1011C00007D10021C02000F016FA0021A02000F075
:1011D00012FA10BDF0B514460B46CF1701EB577746
:1011E000C7F3C702CF1701EB5777FF10A1EBC70773
:1011F000FEB20123B340DDB24CB1134B03EBC0038D
:101200009B5C2B43104F07EBC007BB541AE00E4BFF
:1012100003EBC0039B5CDB430B4F07EBC007BB54E6
:10122000094B03EBC0039B5C2B43074F07EBC00745
:10123000BB54054B03EBC0039B5CDB43024F07EB46
:10124000C007BB54F0BD00000001002008B501211B
:10125000082000F019FA4FF44070ADF8000010209B
:101260008DF8030003208DF8020069463A48FFF725
:10127000B9FA4FF440713848FFF793FBC82000F0EB
:10128000A7FF0021AE2000F0B6F90021084600F0CB
:10129000B2F90021102000F0AEF90021402000F04A
:1012A000AAF90021812000F0A6F90021CF2000F04A
:1012B000A2F90021A12000F09EF90021C82000F031
:1012C0009AF90021A62000F096F90021A82000F04C
:1012D00092F900213F2000F08EF90021D32000F088
:1012E0008AF90021084600F086F90021D52000F097
:1012F00082F90021802000F07EF90021D92000F041
:101300007AF90021F12000F076F90021DA2000F0CE
:1013100072F90021122000F06EF90021DB2000F0AC
:101320006AF90021302000F066F90021202000F049
:1013300062F90021022000F05EF900218D2000F00A
:101340005AF90021142000F056F9FFF707FF002199
:10135000AF2000F050F908BD000C014010B5024666
:10136000012000E050430B00A1F10104E1B2F9D1EA
:1013700010BD000070B500242BE004F1B001C8B22C
:10138000002100F038F90021084600F034F900216E
:10139000102000F030F9FFF773FB782000F0AEFA70
:1013A000FFF7A2FB402000F0A9FAFFF79DFB002504
:1013B00009E0094901EBC501085D00F09FFAFFF75C
:1013C00093FB681CC5B2802DF3DBFFF777FB601C35
:1013D000C4B2082CD1DB70BD000100202DE9FE4F06
:1013E0000746884692461C460197CDF80080082C97
:1013F00002D14FF006091FE02046E31704EB5373B8
:10140000DB1021464FEAE47C04EB5C7C4FEAEC0CF9
:10141000A4EBCC0CBCF1000F02D04FF0010C01E0AA
:101420004FF0000C6344224604EBD27C4FEA6C0C74
:1014300003FB0CF303F0FF09AAF12000C6B200255C
:101440005EE0082C07D106EB4600304901EB400076
:1014500010F805B01DE00C2C07D106EB46002C4916
:1014600001EB800010F805B013E0102C05D12948DD
:1014700000EB061010F805B00BE0182C07D106EBB6
:10148000C600254901EB800010F805B001E0BDE879
:10149000FE8F002002901CE00BF0010028B14146B5
:1014A00038460C9AFFF796FE09E00C9808B901201F
:1014B00000E00020024641463846FFF78BFE4FEA27
:1014C0006B0B08F1010000F0FF080298401CC0B24D
:1014D000029002980828DFDB781CC7B2082C0BD0DA
:1014E00004EBD4714A100199791A8A4204D1019F00
:1014F00000980830C0B20090DDF80080681CC5B2CA
:101500004D459EDBFFF736FF00BFC0E7B22600085F
:10151000DA2800084E2D00083E3300082DE9FF4F61
:1015200083B0064691461F46DDE9104A4FF0000B96
:10153000082C01D14FF0020B002532E0781B401E31
:10154000C1B20A20FFF70AFFB9FBF0F00A21B0FB95
:10155000F1F201FB1208B8F1000F0FD104EBD471C6
:101560000BEB610101FB0561C8B223463022CDF8C7
:1015700000A002940499FFF731FF10E004EBD4714E
:101580000BEB610101FB0561C8B208F13001CAB281
:101590002346CDF800A002940499FFF71FFF681CB2
:1015A000C5B2BD42CADB07B0BDE8F08F2DE9F843F4
:1015B00006460F4614461D46DDF8208013E0CDF8A0
:1015C000008022782B4639463046FFF707FF082D6A
:1015D00002D1B01DC6B205E0284605EBD07106EB7E
:1015E0006101CEB2641C2078202802DB20787E289E
:1015F000E5DDBDE8F88370B505460C46FFF740FA17
:10160000782000F07BF9FFF76FFA1CB1402000F062
:1016100075F902E0002000F071F9FFF765FA28463D
:1016200000F06CF9FFF760FAFFF748FA70BD7047F9
:1016300001460020034A506820F4404008435060AF
:10164000704700000010024029B1064A5269024367
:10165000044B5A6104E0034A52698243014B5A61C8
:10166000704700000010024029B1064AD2690243C7
:10167000044BDA6104E0034AD2698243014BDA6128
:10168000704700000010024029B1064A92690243E7
:10169000044B9A6104E0034A92698243014B9A61C8
:1016A000704700000010024030B5002100220024E5
:1016B00000232D4D6D6805F00C0121B1042905D0E2
:1016C000082923D105E0294D056022E0274D05605A
:1016D0001FE0254D6D6805F47012234D6D6805F40B
:1016E0008034022505EB92421CB9214D554305601B
:1016F0000BE01D4D6D6805F400351DB11C4D5543C3
:10170000056002E0194D5543056002E0174D056084
:1017100000BF00BF144D6D6805F0F0010909154DBB
:101720006B5C0568DD4045600F4D6D6805F4E06158
:10173000090A104D6B5C4568DD4085600A4D6D6897
:1017400005F46051C90A0B4D6B5C4568DD40C5600E
:10175000054D6D6805F44041890B074D6B5CC5680C
:10176000B5FBF3F5056130BD0010024000127A00B0
:1017700000093D00140000202400002000B587B0BF
:1017800001210420FFF780FF01210803FFF77CFF00
:10179000E020ADF8180018208DF81B0003208DF80C
:1017A0001A0006A91748FFF71DF8E0211548FFF7B2
:1017B000F8F80020ADF804004FF48270ADF8060090
:1017C0000020ADF808000220ADF80A000120ADF8B5
:1017D0000C004002ADF80E003820ADF810000020DB
:1017E000ADF812000720ADF8140001A9064800F07A
:1017F00065F80121044800F047F8FF2000F006F8E2
:1018000007B000BD000801400030014070B505463A
:10181000002405E0601CC4B2C82C01DD002070BDAE
:1018200002210E4800F03CF80028F3D029460B486E
:1018300000F042F8002405E0601CC4B2C82C01DDB1
:101840000020ECE70121054800F02AF80028F3D039
:10185000024800F02EF8C0B2E1E70000003001407D
:1018600010B50446074800884FF6C771084005497F
:10187000088008460088204308800121014800F0C4
:1018800003F810BD0030014021B1028842F040024F
:10189000028004E002884FF6BF731A40028070474E
:1018A0000246002013890B400BB1012000E000200C
:1018B00070470146888970478181704710B50022C2
:1018C000028802F441520B884C8823438C882343BE
:1018D000CC8823430C8923434C8923438C8923439D
:1018E000CC8923431A430280838B4FF2FF74234039
:1018F00083830B8A038210BD7047000070B50446D5
:1019000000251FE004F0800028B14FF400710F485B
:10191000FFF747F804E04FF400710C48FFF73FF879
:10192000FFF7FCF84FF480710848FFF73AF8FFF72B
:10193000F5F84FF480710548FFF731F86006040EA2
:10194000681CC5B2082DDDDB70BD0000000C014035
:1019500010B500F001F810BD0CB50020019000900A
:101960003348006840F480303149086000BF304897
:10197000006800F4003000900198401C019000982D
:1019800018B90198B0F5A06FF1D12948006800F4AA
:10199000003010B10120009001E00020009000987C
:1019A000012843D12348006840F010002149086015
:1019B0000846006820F0030008600846006840F010
:1019C000020008601A4840681949486008464068A3
:1019D00048600846406840F48060486008464068B7
:1019E00020F47C1048600846406840F4E8104860E5
:1019F0000846006840F08070086000BF0C4800682E
:101A000000F000700028F9D00948406820F0030079
:101A1000074948600846406840F00200486000BF3F
:101A20000348406800F00C000828F9D10CBD000004
:101A30000010024000200240042808D14FF0E021AD
:101A4000096941F004014FF0E022116107E04FF015
:101A5000E021096921F004014FF0E0221161704793
:101A60007047000010B51348006840F001001149AC
:101A7000086008464068104908400E49486008461A
:101A800000680E4908400B4908600846006820F4C9
:101A9000802008600846406820F4FE0048604FF44B
:101AA0001F008860FFF754FF4FF000600449086092
:101AB00010BD0000001002400000FFF8FFFFF6FE1E
:101AC00008ED00E0F0B50C46154600220021068C1A
:101AD0004FF6FE773E400684028B018C4FF60C7663
:101AE00032407E1C06EA03162E433243104EB042AB
:101AF0000ED0104EB0420BD0B0F1804F08D00E4E39
:101B0000B04205D00D4EB04202D00D4EB04206D1CB
:101B10004FF6FD76314044F00106314305E04FF6C3
:101B2000F576314044F00106314302830184F0BD73
:101B3000002C014000340140000400400008004037
:101B4000000C0040F0B50C4615460022002100268E
:101B5000078C4FF6EF7C07EA0C070784028B018C99
:101B60004FF6FF7707EA041640F6FF473A404FF674
:101B7000FF7707EA03373A434FF6FF7707EA05276F
:101B80003A43114FB8420ED0104FB8420BD0B0F1CB
:101B9000804F08D00E4FB84205D00E4FB84202D049
:101BA0000D4FB84206D14FF6DF77394046F01007A7
:101BB000394305E04FF65F77394044F01007394369
:101BC00002830184F0BD0000002C0140003401407C
:101BD0000004004000080040000C0040F0B50C4636
:101BE0001546002200210026078C4FF6FF6C07EAFD
:101BF0000C070784828B018C4FF6FF7707EA0426D7
:101C00004FF60C773A404FF6FF7707EA03172F435A
:101C10003A43114FB8420ED0104FB8420BD0B0F13A
:101C2000804F08D00E4FB84205D00E4FB84202D0B8
:101C30000D4FB84206D14FF6FF57394046F4807732
:101C4000394305E04FF2FF57394044F48077394378
:101C500082830184F0BD0000002C0140003401406B
:101C60000004004000080040000C0040F0B50C46A5
:101C70001546002200210026078C4EF6FF7C07EA5D
:101C80000C070784828B018C4FF6FF7707EA043636
:101C900040F6FF473A404FF6FF7707EA05273A43F9
:101CA0004FF6FF7707EA03373A43114FB8420ED099
:101CB000104FB8420BD0B0F1804F08D00E4FB84251
:101CC00005D00E4FB84202D00D4FB84206D14DF6A6
:101CD000FF77394046F48057394305E047F6FF5710
:101CE000394044F48057394382830184F0BD0000B9
:101CF000002C014000340140000400400008004076
:101D0000000C004021B1028842F00102028004E090
:101D100002884FF6FE731A4002807047F0B50C46F9
:101D200015461E460021002200230189028B038CE8
:101D30004FF6F877394021434FF6FC473A4040F2DE
:101D400001173A434FF6DD773B404FF6FF7707EA3E
:101D500006172F433B43018102830384F0BD0146F4
:101D6000888C704770B505460C46244885420ED0D5
:101D7000234885420BD0B5F1804F08D021488542D9
:101D800005D02148854202D02048854200D100E09C
:101D900000BF208850B92389A28861882846FFF7B0
:101DA00091FEE188284600F03CF825E020880428D0
:101DB0000AD12389A28861882846FFF7C3FEE188FB
:101DC000284600F037F817E0208808280AD1238930
:101DD000A28861882846FFF701FFE188284600F0C5
:101DE00036F809E02389A28861882846FFF73EFF7C
:101DF000E188284600F034F870BD0000002C014056
:101E0000003401400004004000080040000C004085
:101E1000002101804180012181800021C180018158
:101E20007047028B4FF6F3731A400283028B0A430A
:101E300002837047028B4FF2FF331A400283028BFA
:101E40004FF6FF7303EA01231A4302837047828B24
:101E50004FF6F3731A408283828B0A438283704762
:101E6000828B4FF2FF331A408283828B4FF6FF73CF
:101E700003EA01231A43828370470000002202888C
:101E80001D4B98420ED01D4B98420BD0B0F1804FA5
:101E900008D01B4B984205D01A4B984202D01A4BDF
:101EA000984204D14FF68F731A404B881A43174B50
:101EB000984207D0164B984204D04FF6FF431A4081
:101EC000CB881A4302808B8883850B8803850A4B55
:101ED00098420BD0094B984208D00E4B984205D03F
:101EE0000D4B984202D00D4B984201D10B7A0386DC
:101EF0000123838270470000002C01400034014020
:101F00000004004000080040000C004000100040A9
:101F100000140040004001400044014000480140DE
:101F200010B540F225511D4800F04AF810B31B4887
:101F300000F002F9C4B21A48008800F40040C8B9A1
:101F40001748008800F4804060B10A2C03D00020BC
:101F50001349088020E01248008840F400401049EE
:101F6000088019E00D2C06D10D48008840F480400F
:101F70000B49088010E00A480088C0F30D000949A9
:101F80000C5407480088401C054908800846008812
:101F9000C72801DD0020088010BD00000038014086
:101FA000300000203800002021B1828942F4005224
:101FB000828104E082894DF6FF731A408281704766
:101FC00070B50246002400230025002040F66A1662
:101FD000B14200D100BFC1F3421501F01F03012639
:101FE00006FA03F3012D02D19689334006E0022D53
:101FF00002D1168A334001E0968A33400C12012642
:1020000006FA04F41688344013B10CB1012000E044
:10201000002070BDF0B503460024002600250020F6
:1020200040F66A17B94200D100BF1846C1F3421406
:1020300001F01F06012707FA06F5012C01D10C302B
:1020400004E0022C01D1103000E014301AB107680E
:102050002F43076002E00768AF430760F0BD000050
:102060002DE9F04786B005460E460024A24600BF83
:10207000A1460027B08900B100BF2F462C8A4CF63C
:10208000FF700440F08804432C82AC894EF6F310B4
:102090000440B08831890843718908430443AC8106
:1020A000AC8A4FF6FF400440B0890443AC8201A8DB
:1020B000FFF7FAFA1F48874202D1DDF810A001E0CD
:1020C000DDF80CA0A88900F4004040B10AEBCA007A
:1020D00000EB0A1031684900B0FBF1F807E00AEBA9
:1020E000CA0000EB0A1031688900B0FBF1F86420E7
:1020F000B8FBF0F004012009642101FB1089A889D4
:1021000000F4004040B1322000EBC900B0FBF1F018
:1021100000F00700044308E0322000EB09106421BE
:10212000B0FBF1F000F00F0004432C8106B0BDE8D5
:10213000F08700000038014001468888C0F308009D
:10214000704700BFFEE700000021002003E00D4AB9
:1021500012881144401C0A28F9DB0A2091FBF0F197
:10216000B1F5805F05DA40F6B830814201DB162018
:102170007047B1F57A7F03DA002901DB1A20F7E70F
:102180000020F5E73400002000BF704710B56FF065
:102190000400FFF751FC0A4800680A49B0FBF1F05F
:1021A000094908700846007800EB4001C1EBC010F7
:1021B0004FF6FF7101EAC0000449088010BD00001D
:1021C0000000002000127A00280000202A000020D1
:1021D0000146114A12884A434FF0E0235A61002217
:1021E0009A611A46126942F001021A6100BF4FF06B
:1021F000E022106900F001021AB100F48032002AD6
:10220000F5D04FF0E022126922F001024FF0E023F6
:102210001A6100229A6170472A00002000BF054A17
:10222000128802F04002002AF9D0C2B2014B1B1DF5
:102230001A807047003801402DE9F041054600241E
:10224000FEF778FA0746C01707EB9070801000F190
:102250001406002E00DC04E01E2E01DB1E2400E02C
:10226000F4B22246294605A0FDF7B4FFA54203D0EB
:1022700025462046BDE8F0810020FBE77470203D34
:102280002025642C20766F6C203D202564200D0ACB
:102290000000000086B00026FEF71AFEFEF7B2FD31
:1022A000FFF774FFFEF7D2FDFEF790F9FEF7CEFFC1
:1022B0000020FEF76BFF0020FEF776FFFEF742FAE4
:1022C0004FF4E13000F0A0F916E00120082363A2EA
:1022D000002100900846FFF769F900206349086073
:1022E000C820FFF775FFFEF739FFC820FFF770FF22
:1022F00001205F49C1F8B401FEF7C2FD0028E4D116
:10230000012008235BA2002100900846FFF74EF948
:102310004FF47A70FFF75CFF9EE05A48007801287E
:10232000FAD1FEF745FE0120082357A200210090B4
:102330000846FFF73BF98EE058A0FDF74BFF04A9D4
:1023400005A8FEF7F3FB064655A0FDF743FF002E58
:10235000F1D054A0FDF73EFF9DF814008DF80C005D
:102360009DF810008DF80D009DF810209DF81410B8
:102370004DA0FDF72FFF9DF8140001285CD19DF8BA
:10238000100015280FD09DF8100017280BD09DF8CD
:102390001000142807D09DF81000182803D09DF8CD
:1023A0001000162814D100259DF81000844233D067
:1023B0009DF8104001208DF8080016208DF80900C6
:1023C00002A8FEF729FE40F21450FFF701FF23E0B8
:1023D0009DF810001B2807D09DF81000192803D085
:1023E0009DF810001A2814D100259DF81000844291
:1023F00012D09DF8104001208DF808001A208DF8A9
:10240000090002A8FEF708FE40F21450FFF7E0FEB4
:1024100002E06324681CC5B2022D0BDA03A800F0A9
:102420009DF81248006808B9012000E000200F491B
:10243000086010E003250EE024A0FDF7CBFE002588
:1024400003A800F08BF80948006808B9012000E0F3
:102450000020064908606FE75FE700004E524632F1
:10246000344C3031204572726F720000B401224248
:10247000000022424E524620434845434B204F4BDA
:1024800021000000320000204E524632344C3031E0
:102490002054585F4D6F6465000000006161610069
:1024A00063636300646464006B65795F7374617473
:1024B0007573203D202564206B65795F76616C75AE
:1024C00065203D2025640D0A00000000656565005B
:1024D00008B501210920FFF7D7F801211C48FEF7B4
:1024E0000DFA4FF48060ADF8000003208DF8020073
:1024F00028208DF8030069461648FEF773F94FF45B
:102500000060ADF8000003208DF8020010208DF867
:10251000030069460F48FEF765F901210420FFF723
:10252000B3F81020ADF800008DF8030003208DF8FB
:10253000020069460848FEF755F94FF44061054826
:10254000FEF72DFA10210448FEF729FA08BD000015
:1025500000023000000C0140000801401CB5044698
:102560002046FEF759FD202824D1012008231AA275
:10257000092100900020FFF719F8012008231AA272
:10258000122100900020FFF711F801200821CDE969
:1025900000102278022312210020FEF7BFFF012045
:1025A0000821CDE900106278022312211420FEF7E1
:1025B000B5FF0FE0012008230BA2022100900020AC
:1025C000FEF7F4FF012008230BA212210090002047
:1025D000FEF7ECFF1CBD000053656E64656420448B
:1025E0004154413A000000002020202020202020DB
:1025F000202020202000000053656E642046616981
:102600006C6564200000000010B586B0044601210E
:1026100044F20400FFF738F84FF40070ADF81400EE
:1026200003208DF8160018208DF8170005A91C4806
:10263000FEF7D8F84FF48060ADF8140004208DF850
:10264000170005A91648FEF7CDF825208DF80000E3
:1026500003208DF801008DF8020001208DF80300A1
:102660006846FEF743FD01940020ADF80800ADF880
:102670000A00ADF80C00ADF810000C20ADF80E000B
:1026800001A90848FFF7ECFC012240F2255105485A
:10269000FFF7C0FC01210348FFF786FC06B010BD20
:1026A0000008014000380140344310100134431049
:1026B00010010000000000000000002F00000000DA
:1026C0000700070000147F147F1400242A7F2A12B9
:1026D00000626408132300364955225000000503A8
:1026E000000000001C224100000041221C000014D8
:1026F000083E08140008083E0808000000A060001A
:1027000000080808080800006060000000201008A9
:102710000402003E5149453E0000427F4000004215
:1027200061514946002141454B31001814127F1078
:10273000002745454539003C4A49493000017109A7
:10274000050300364949493600064949291E00005B
:102750003636000000005636000000081422410002
:102760000014141414140000412214080002015132
:10277000090600324959513E007C1211127C007F3B
:1027800049494936003E41414122007F4141221CD6
:10279000007F49494941007F09090901003E41493B
:1027A000497A007F0808087F0000417F410000202F
:1027B00040413F01007F08142241007F40404040DB
:1027C000007F020C027F007F0408107F003E414121
:1027D000413E007F09090906003E4151215E007F0C
:1027E000091929460046494949310001017F010183
:1027F000003F4040403F001F2040201F003F403826
:10280000403F006314081463000708700807006164
:102810005149454300007F41410000552A552A5542
:10282000000041417F0000040201020400404040DA
:102830004040000001020400002054545478007FFE
:102840004844443800384444442000384444487FD5
:1028500000385454541800087E0901020018A4A43A
:10286000A47C007F080404780000447D4000004000
:1028700080847D00007F102844000000417F4000DC
:10288000007C04180478007C080404780038444470
:10289000443800FC242424180018242418FC007C4C
:1028A0000804040800485454542000043F444020C5
:1028B000003C4040207C001C2040201C003C40305C
:1028C000403C004428102844001CA0A0A07C0044E8
:1028D00064544C4414141414141400000000000038
:1028E0000000000000000000FC00000000000200EA
:1028F0000000000C020C020000000000000090D05C
:10290000BCD0BC900003000300001824FE448C00DF
:102910000302070201001824D8B04C800003000114
:102920000201C038E438E000010202010202080698
:1029300000000000000000000000000000F8040299
:10294000000000010204000204F80000000402017B
:1029500000009060F860900000000100000020205E
:10296000FC2020000000010000000000000000002A
:1029700008060000000020202020200000000000A9
:1029800000000000000000000002000000000080C5
:10299000601C0200040300000000F8040404F800B6
:1029A0000102020201000008FC0000000002030214
:1029B00000001884442418000302020202000804E4
:1029C0002424D80001020202010040B088FC8000EB
:1029D0000000000302003C242424C400010202027F
:1029E0000100F824242CC0000102020201000C04A2
:1029F000E41C0400000003000000D8242424D800B4
:102A000001020202010038444444F80000030202BB
:102A100001000000100000000000020000000000A3
:102A20002000000000000600000000205088040282
:102A300000000000010290909090900000000000C3
:102A40000000000204885020000201000000180469
:102A5000C4241800000002000000F804E494F80008
:102A600001020202020000E09CF08000020300006C
:102A7000030204FC2424D800020302020100F8042B
:102A800004040C0001020202010004FC0404F8002A
:102A900002030202010004FC24740C00020302027F
:102AA000030004FC24740C00020302000000F00880
:102AB0000444CC4000010202010004FC2020FC047C
:102AC0000203000003020404FC04040002020302E7
:102AD0000200000404FC040406040403000004FCD7
:102AE00024D00C0402030200030204FC04000000D2
:102AF000020302020203FC3CC03CFC000300030092
:102B0000030004FC30C4FC04020302000300F804C8
:102B10000404F80001020202010004FC242418004D
:102B2000020302000000F8848404F8000102020796
:102B3000050004FC24649800020302000302182428
:102B400024448C000302020201000C04FC040C006B
:102B500000020302000004FC0000FC040001020269
:102B60000100047C80E01C040000030000001CE065
:102B70003CE01C00000300030000049C609C040077
:102B8000020300030200041CE01C04000002030214
:102B900000000C84641C0400020302020300000015
:102BA000FE020200000007040400000E30C0000016
:102BB000000000010200000202FE00000004040701
:102BC00000000004020400000000000000000000FB
:102BD00000000000080808080808000002000000C3
:102BE0000000000000000040A0A0C00000010202A0
:102BF000030204FC2020C00000030202010000C008
:102C00002020600000010202020000C02024FC001D
:102C100000010202030200C0A0A0C00000010202E5
:102C200002000020F82424040002030202000040F5
:102C3000A0A0602000070A0A0A0404FC2020C000AB
:102C40000203020003020020E4000000000203026D
:102C50000000000020E4000008080807000004FC51
:102C600080E020200203020003020404FC000000B4
:102C7000020203020200E020E020C0000300030083
:102C8000030020E02020C00002030200030200C075
:102C90002020C00000010202010020E02020C0002E
:102CA000080F0A02010000C02020E0000001020A13
:102CB0000F0820E040202000020302000000006016
:102CC000A0A020000002020203000020F820000063
:102CD00000000102020020E00020E00000010202EA
:102CE000030220E0208060200000030100006080DB
:102CF000E08060000003000300002060806020008E
:102D000002030003020020E0208060200808070181
:102D100000000020A060200000020302020000006A
:102D200020DE0200000000070400000000FF000099
:102D30000000000F00000002DE2000000004070079
:102D40000000020102040402000000000000000074
:102D50000000000000000000000000000000000073
:102D600000F80000000000000033300000000010F8
:102D70000C06100C0600000000000000000040C01F
:102D80007840C0784000043F04043F040400007011
:102D900088FC08300000001820FF211E0000F00809
:102DA000F000E018000000211C031E211E0000F0AE
:102DB0000888700000001E212324192721101016F6
:102DC0000E000000000000000000000000000000F5
:102DD00000E0180402000000000718204000000274
:102DE0000418E000000000402018070000004040E8
:102DF00080F0804040000202010F0102020000004A
:102E000000F0000000000101011F010101000000AD
:102E100000000000000080B0700000000000000012
:102E2000000000000000000101010101010100009B
:102E30000000000000000030300000000000000032
:102E4000000080601804006018060100000000E027
:102E500010080810E000000F102020100F000010D4
:102E600010F8000000000020203F2020000000702B
:102E70000808088870000030282422213000003023
:102E80000888884830000018202020110E0000001B
:102E9000C02010F8000000070424243F240000F89C
:102EA0000888880808000019212020110E0000E081
:102EB000108888180000000F112020110E00003823
:102EC0000808C83808000000003F0000000000703B
:102ED000880808887000001C222121221C0000E0C4
:102EE00010080810E0000000312222110F0000003D
:102EF00000C0C000000000000030300000000000F2
:102F00000080000000000000806000000000000061
:102F100080402010080000010204081020004040FA
:102F2000404040404000040404040404040000083D
:102F300010204080000000201008040201000070F2
:102F400048080808F0000000003036010000C030DA
:102F5000C828E810E0000718272423140B000000FD
:102F6000C038E0000000203C23020227382008F887
:102F7000888888700000203F202020110E00C0307B
:102F8000080808083800071820202010080008F852
:102F900008080810E000203F202020100F0008F84B
:102FA0008888E8081000203F20202320180008F817
:102FB0008888E8081000203F200003000000C0308F
:102FC00008080838000007182020221E020008F810
:102FD00008000008F808203F210101213F200008D7
:102FE00008F8080800000020203F20200000000012
:102FF0000808F8080800C08080807F00000008F8FA
:1030000088C028180800203F20012638200008F832
:10301000080000000000203F20202020300008F899
:10302000F800F8F80800203F003F003F200008F8B3
:1030300030C00008F808203F200007183F00E010CB
:1030400008080810E0000F10202020100F0008F8DA
:1030500008080808F000203F210101010000E010ED
:1030600008080810E0000F18242438504F0008F812
:10307000888888887000203F2000030C3020007072
:103080008808080838000038202121221C00180870
:1030900008F8080818000000203F2000000008F889
:1030A00008000008F808001F202020201F000878D2
:1030B000880000C83808000007380E010000F80832
:1030C00000F80008F800033C0700073C030008185C
:1030D00068808068180820302C03032C30200838C2
:1030E000C800C83808000000203F20000000100879
:1030F0000808C838080020382621202018000000C1
:1031000000FE020202000000007F40404000000C70
:1031100030C000000000000000010638C0000002BE
:103120000202FE000000004040407F00000000005E
:103130000402020204000000000000000000000081
:10314000000000000000808080808080808000027D
:103150000204000000000000000000000000000069
:103160008080808000000019242222223F2008F85D
:10317000008080000000003F112020110E000000A0
:10318000008080800000000E11202020110000002F
:1031900000808088F800000E112020103F200000E1
:1031A000808080800000001F2222222213000080E5
:1031B00080F0888888180020203F20200000000030
:1031C000808080808000006B94949493600008F865
:1031D000008080800000203F210000203F200080F0
:1031E0009898000000000020203F202000000000F0
:1031F00000809898000000C08080807F000008F860
:10320000000080808000203F24022D302000000834
:1032100008F8000000000020203F202000008080EF
:10322000808080808000203F20003F20003F808001
:10323000008080800000203F210000203F2000000F
:10324000808080800000001F202020201F008080C0
:1032500000808000000080FFA12020110E000000EF
:10326000008080808000000E112020A0FF808080E0
:1032700080008080800020203F212000010000008D
:103280008080808080000033242424241900008062
:1032900080E0808000000000001F2020000080806F
:1032A000000000808000001F202020103F20808030
:1032B00080000080808000010E30080601008080C0
:1032C0000080008080800F300C030C300F000080E5
:1032D0008000808080000020312E0E312000808010
:1032E00080000080808080818E7018060100008040
:1032F0008080808080000021302C2221300000005E
:103300000000807C020200000000003F40400000FE
:103310000000FF00000000000000FF0000000002AD
:10332000027C800000000040403F000000000006DA
:10333000010102020404000000000000000000007F
:10334000000000000000000000000000000000007D
:10335000000000000000000000000000000000006D
:1033600000000000000000F0F0F00000000000008D
:10337000000000017F010000000000000000001CB0
:103380001C1C0000000000008060301C8C60301CA1
:103390000C00000000000000000000000000000021
:1033A00000000000000000000000000000E000003D
:1033B000000000E000000086E69F86868686E69F85
:1033C000860000011F01010101011F010100000031
:1033D00080C06020F820E0C00000000003070C1847
:1033E000FF70E18100000000070F10107F100F0731
:1033F00000008060206080000000E02000000F30AE
:1034000020309F70DC371030C0000000100E030029
:103410000718101807000000C02020E0C0000000BE
:10342000000080E01F38E88703C43C040000070F59
:103430001810100B070D1010080000808C4C38007D
:10344000000000000000000000000000000000007C
:10345000000000000000000000000000000000006C
:103460000000000080E0300804000000000000FEC2
:10347000FF0100000000000000000000030F182002
:10348000400000040830E080000000000000000060
:10349000000001FFFE0000000000004020180F03A4
:1034A000000000000000000000000000C00000005C
:1034B0000000004266663C18FF183C666642000049
:1034C00000000000030000000000000000000000F9
:1034D000800000000000001010101010FF101010ED
:1034E00010100000000000000300000000000000B9
:1034F00000000000000000000000000000000000CC
:1035000000000000000000808C4C3800000000002B
:10351000000000000000000000000000000000109B
:10352000101010101010101010000000000000000B
:10353000000000000000000000000000000000008B
:10354000000000000000000000000000000000007B
:103550001C1C1C0000000000000000000000000017
:103560000000E0380C000000000080701C03000028
:1035700000000060380E01000000000000000000A4
:1035800080C060202060C080000000FEFF010000BD
:10359000000001FFFE000001070E181010180E07B2
:1035A00001000000808080C0E000000000000000FA
:1035B000000000FFFF000000000000001010101FBE
:1035C0001F10101000000080402020202060C080CC
:1035D000000000030300804020381F070000001C8B
:1035E0001A1918181818181F00000080C020202071
:1035F00060C080000000000303001010182FE78057
:10360000000000070F10101010180F070000000036
:1036100000000000C0E0F000000000C0B08886811B
:1036200080FFFF808000000000000010101F1F10AE
:1036300010000000E06060606060606000000000FA
:103640003F1008080818F0E0000000070B101010E9
:10365000101C0F030000000080C040202020E0C0AC
:10366000000000FCFF211008080818F0E00000012D
:10367000070C18101010080F03000000C0E0606075
:10368000606060E06000000003000000E0180700D8
:10369000000000000000001F1F000000000000806C
:1036A000C0602020202060C080000087EF2C181808
:1036B000303068CF830000070F0810101010180F6B
:1036C00007000000C0C020202020C0800000001F94
:1036D0003F604040402010FFFE0000000C1C101016
:1036E00010080F03000000000000000000000000B0
:1036F000000000000000000E0E0E000000000000A0
:103700000000001C1C1C0000000000000000000065
:1037100000000000000000000000000C0C00000091
:103720000000000000000058380000000000000009
:10373000000000000080402010000000102844829B
:103740000100000000000000000000000102040869
:1037500010000000000000000000000000000084D5
:1037600084848484848484848400000000000000B5
:103770000000000000000000102040800000000059
:10378000000000000000000001824428100000003A
:103790001008040201000000000000C020201010EA
:1037A000101030E0C0000003030000F010080C0708
:1037B0000300000000001C1C1C00000000000000B2
:1037C00000C0406020202040C00000FCFF01F00E3F
:1037D00003C1FE03807F0001070E081111101109BB
:1037E00004020000000080E0E00000000000000093
:1037F000807C4340477FF880000010181F100000B5
:103800000000131F1C1020E0E02020202060C0805A
:10381000000000FFFF10101010182FE78000101F8D
:103820001F1010101010180F0700000080C040205B
:1038300020202060E00000FCFF01000000000000EC
:1038400001000001070E181010100804030020E00A
:10385000E02020202040C080000000FFFF0000008A
:10386000000001FFFE00101F1F10101018080E07A7
:10387000010020E0E020202020202060800000FFC8
:10388000FF101010107C00000000101F1F101010FF
:1038900010101018060020E0E0202020202060609A
:1038A000800000FFFF101010107C00000100101FAE
:1038B0001F100000000000000000000080C0602019
:1038C000202040E0000000FCFF0100004040C0C19B
:1038D00040400001070E181010100F0F000020E0EC
:1038E000E0200000000020E0E02000FFFF101010AA
:1038F000101010FFFF00101F1F1000000000101F0D
:103900001F100000202020E0E02020200000000008
:10391000000000FFFF000000000000001010101F5A
:103920001F101010000000000000202020E0E02008
:10393000202000000000000000FFFF0000000060E9
:10394000E0808080C07F3F00000020E0E020000099
:1039500020A06020200000FFFF30187CE3C00000A2
:103960000000101F1F10000001131F1C181020E082
:10397000E020000000000000000000FFFF00000049
:10398000000000000000101F1F1010101010101871
:10399000060020E0E0E000000000E0E0E02000FFA2
:1039A000013FFEC0E01E01FFFF00101F1000031FBB
:1039B0000300101F1F1020E0E0C0000000000020E6
:1039C000E02000FF0003071C78E08000FF00101FCC
:1039D000100000000000030F1F00000080C06020E6
:1039E0002060C080000000FEFF010000000000FF1A
:1039F000FE000001070E181010180C07010020E04F
:103A0000E0202020202060C0800000FFFF20202038
:103A10002020301F0F00101F1F10000000000000AA
:103A20000000000080C060202060C080000000FE18
:103A3000FF010000000000FFFE000001070E111151
:103A4000133C7C67210020E0E0202020202060C083
:103A5000800000FFFF101030F0D0080F0700101F8B
:103A60001F10000000030F1C10100080C0602020F9
:103A700020204040E00000070F0C1818303060E0B4
:103A80008100001F0C0810101010180F0700806034
:103A9000202020E0E020202060800100000000FFC6
:103AA000FF000000000100000000101F1F100000B8
:103AB000000020E0E020000000000020E02000FFE7
:103AC000FF00000000000000FF0000070F181010AA
:103AD0001010100807002060E0E02000000020E047
:103AE00060200000077FF88000807C030000000059
:103AF0000000071F1C070000000020E0E02000E09D
:103B0000E0200020E0200007FFF8E01FFFFCE01F9E
:103B100000000000031F0300011F0300000000203D
:103B200060E0A0000020E0602000000000038F7C27
:103B3000F8C6010000000010181E130001171F181E
:103B400010002060E0E02000000020E06020000085
:103B500001073EF8E0180700000000000010101FE9
:103B60001F101000000000806020202020A0E0E056
:103B7000200000000000C0F03E0F03000000001015
:103B80001C1F17101010101806000000000000FC89
:103B90000404040404000000000000FF0000000012
:103BA000000000000000007F404040404000000056
:103BB00010E0000000000000000000000000031CF6
:103BC00060800000000000000000000000030C7096
:103BD000800000000404040404FC00000000000055
:103BE0000000000000FF00000000000040404040D6
:103BF000407F0000000000000010080C040C0810BA
:103C000000000000000000000000000000000000B4
:103C100000000000000000000000000000000000A4
:103C20000000000000000000000000000000000094
:103C30000000808080808080808080808080000084
:103C4000000404080800000000000000000000005C
:103C50000000000000000000000000000000000064
:103C60000000000000000000000000000000000054
:103C700098D844642424FCF80000000F1F1810108A
:103C800010081F1F10180020E0F0000000000000C6
:103C900000000000FFFF180804040CF8F00000000A
:103CA0001F0F18101010180F030000000000000074
:103CB00000000000000000E0F8180404043C380094
:103CC000000000030F0C1010101008060000000088
:103CD000000000000020E0F0000000E0F81C0404F8
:103CE0000408FFFF000000030F18101010081F0F3A
:103CF00008000000000000000000000000000000BC
:103D0000E0F8484444444C7870000000030F0C185D
:103D10001010100804000000000080C0602020E0A7
:103D2000C00000040404FFFF0404040400000000B9
:103D300010101F1F101010000000000000000000F5
:103D4000000000000000000070F88C04048CF8747F
:103D5000040C007076CF8D8D8D89C878700000209E
:103D6000E0F000000000000000000000FFFF080479
:103D70000404FCF8000000101F1F100000101F1F9B
:103D80001000000000000060600000000000000063
:103D9000040404FCFC000000000000001010101FD0
:103DA0001F10101000000000000000000060600004
:103DB000000000000000040404FCFC0000000000FF
:103DC000C0C08080C07F3F0000000020E0F0000005
:103DD0000000000000000000FFFF80C0F41C04048D
:103DE000000000101F1F1100031F1C101000000016
:103DF000202020E0F000000000000000000000FF94
:103E0000FF000000000000001010101F1F10101015
:103E1000000000000000000000000000000004FCA2
:103E2000FC0804FCFC0804FCFC00101F1F10001F11
:103E30001F10001F1F100000000000000000000005
:103E400000000004FCFC08080404FCF8000000105A
:103E50001F1F100000101F1F1000000000000000B6
:103E600000000000000000E0F0180C04040C18F042
:103E7000E00000030F0C101010100C0F03000000E6
:103E8000000000000000000000000004FCFC08042A
:103E900004040CF8F0000080FFFF889010101C0F45
:103EA000030000000000000000000000000000E02F
:103EB000F81C04040408F8FC000000030F1810109C
:103EC0009088FFFF8000000000000000000000005C
:103ED0000000040404FCFC100804040C0C00101086
:103EE000101F1F1010100000000000000000000054
:103EF00000000000000000003078CCC48484840CF2
:103F00001C0000001E1810101011190F06000000F0
:103F1000000000C000000000000000040404FFFFD7
:103F2000040404000000000000000F1F1010100C1B
:103F3000000000000000000000000000000000047D
:103F4000FCFE00000004FCFE000000000F1F181023
:103F500010081F0F08000000000000000000000013
:103F6000000000040C3CFCC40000C43C0C04000035
:103F70000000010F1E0E0100000000000000000004
:103F8000000000000000043CFCC400E47CFC8480D1
:103F90007C040000071F070000071F070000000047
:103FA000000000000000000000000004041C7CE48D
:103FB000C0341C0404000010101C1601131F1C1830
:103FC00010000000000000000000000000000004DD
:103FD0000C3CFCC400C43C0404000000C080C13799
:103FE0000E010000000000000000000000000000C2
:103FF000000000001C0404C4F47C1C040000000049
:10400000101C1F17111010180E00000000000000F7
:1040100000F80C04000000000000001028EF000071
:104020000000000000000000003F604000000000B1
:1040300000000000FF000000000000000000000081
:10404000FF0000000000000000000000FF00000072
:1040500000000000040CF800000000000000000058
:104060000000EF28100000000000000040603F004A
:1040700000000000000000180602020408102020C2
:1040800030080000000000000000000000000000F8
:10409000000000000000000000000000F010101000
:1040A00010FF10101010F000000000000F040404B6
:1040B00004FF040404040F0000004040405F555515
:1040C00055755555555F404040000040200F094947
:1040D00089790909090F2040000000FE02424ACAFE
:1040E0004A4ACA4A4A4202FE000000FF40504C437E
:1040F00040404F50505C40FF00000000F888888826
:1041000088FF88888888F800000000001F080808D9
:10411000087F888888889F80F000808282828282DF
:1041200082E2A2928A868280800000000000004025
:10413000807F0000000000000000101010FF1090B1
:1041400008888888FF88888808000444827F018066
:104150008040432C1028468180000010101010D0A1
:1041600030FF30D0121C10100000100804020100B3
:1041700000FF000001020408100004040484E43C71
:104180002724242424E40404040004020100FF0979
:1041900009090949897F0000000000FE225A8600B3
:1041A000FE9292929292FE00000000FF0408070027
:1041B000FF4020030C1422414000008040201806DC
:1041C0008000071820408000000001002070282691
:1041D00021202024386000010100001012929292E8
:1041E000929292121202FE0000000000003F101096
:1041F00010103F0040807F000000000000C0808061
:104200008080808080FC84808080808080C0C0002E
:104210000000000000FF7F404040404040FF404021
:104220004040404040FF7F000000000000000000D0
:1042300000000000007F700000000000000000008F
:10424000000000000000000000000000000000006E
:1042500000FCF8000000000000000000000000006A
:10426000000000000000FFFE020202020202020241
:1042700002FFFF020202020202020202FF0300002A
:104280000000000000001F1F0404040404040404D0
:1042900004FFFF0404040404040404041F000000D9
:1042A000000000000000000000000000000000000E
:1042B000007F3F0000000000000000000000000040
:1042C00000000000000000000000000000000000EE
:1042D000000000000000000000000000000000F8E6
:1042E000F8F0F07020000000000000000000000066
:1042F00000000000000000000000000000000000BE
:10430000000000000000000000008000000000002D
:10431000000000000000000000000000000000FF9E
:10432000FFFFFF0000000000000000000000000090
:10433000000000000000808000000000000000007D
:104340000000000000000000000000FFFFFE060665
:10435000060606060606060606060606060606FF04
:10436000FFFFFF0606060606060606060606060602
:104370000606060606FFFFFFFF070200000000001A
:104380000000000000000000000000FFFFFF000030
:10439000000000000000000000000000000000FF1E
:1043A000FFFFFF0000000000000000000000000010
:1043B0000000000000FFFFFFFF0000000000000001
:1043C0000000000000000000000000FFFFFF1818C0
:1043D000181818181818181818181818181818FF76
:1043E000FFFFFF1818181818181818181818181898
:1043F0001818181818FFFFFFFF0000000000000049
:1044000000000000000000000000020101000000A8
:10441000000000000000000000000000000000FF9D
:10442000FFFFFF000000000000000000000000008F
:10443000000000000001010000000000000000007A
:10444000000000000000000000000000000000006C
:10445000000000000000000000000000000000FF5D
:10446000FFFFFF000000000000000000000000004F
:10447000000000000000000000000000000000003C
:10448000000000000000000000000000000000002C
:104490000000000000000000000000000000001FFD
:1044A0001F0F0F00000000000000000000000000CF
:1044B00000000000000000000000000000000000FC
:1044C00000000000E4440008000000203800000064
:1044D000280100081C45000838000020A80B000037
:1044E0004401000800A24A0400000000000000008F
:1044F000010203040607080900000000010203048A
:10450000010203040607080902040608000000006F
:0C4510000000000000000114000000008A
:04000005080000ED02
:00000001FF
