:020000040800F2
:10000000F011002005070008DD010008DF010008ED
:10001000E3010008E7010008EB0100080000000010
:10002000000000000000000000000000EF010008D8
:10003000F101000800000000F3010008F5010008CC
:100040001F0700081F0700081F0700081F070008F8
:100050001F0700081F0700081F0700081F070008E8
:100060001F0700081F0700081F0700081F070008D8
:100070001F0700081F0700081F0700081F070008C8
:100080001F0700081F0700081F0700081F070008B8
:100090001F0700081F0700081F0700081F070008A8
:1000A0001F0700081F0700081F0700081F07000898
:1000B00059420008173F0008414200081F07000886
:1000C0001F0700081F0700081F0700081F07000878
:1000D0001F0700081F0700081F0700084543000806
:1000E000775200081F0700081F07000800F002F8F9
:1000F00000F05FF80AA090E8000C82448344AAF163
:100100000107DA4501D100F054F8AFF2090EBAE860
:100110000F0013F0010F18BFFB1A43F0010318473B
:1001200040D6000060D600000A444FF0000C10F8E2
:10013000013B13F0070408BF10F8014B1D1108BF65
:1001400010F8015B641E05D010F8016B641E01F805
:10015000016BF9D113F0080F1EBF10F8014BAD1C55
:100160000C1B09D16D1E58BF01F801CBFAD505E073
:1001700014F8016B01F8016B6D1EF9D59142D6D3CD
:10018000704700000023002400250026103A28BFF5
:1001900078C1FBD8520728BF30C148BF0B607047F9
:1001A000642908F0D785002070471FB51FBD10B522
:1001B00010BD08F09FFF1146FFF7F7FF00F0FEF9B2
:1001C00008F0BDFF03B4FFF7F2FF03BC03F052F8E1
:1001D00030BF72B662B680F308887047704700BFC0
:1001E000FEE700BFFEE700BFFEE700BFFEE7704787
:1001F00070477047704700000CB5002001900090D8
:100200006C48006840F480306A49086000BF694863
:10021000006800F4003000900198401C01900098A4
:1002200018B90198B0F5A06FF1D16248006800F4E8
:10023000003010B10120009001E0002000900098F3
:10024000012843D15C48006840F010005A4908601A
:100250000846006820F0030008600846006840F087
:1002600002000860534840685249486008464068A8
:1002700048600846406840F480604860084640682E
:1002800020F47C1048600846406840F4E81048605C
:100290000846006840F08070086000BF454800686C
:1002A00000F000700028F9D04248406820F00300B8
:1002B000404948600846406840F00200486000BF7E
:1002C0003C48406800F00C000828F9D10CBD10B57E
:1002D000FFF792FF10BD10B53648006840F00100EE
:1002E000344908600846406834490840314948604C
:1002F00008460068324908402E49086008460068F0
:1003000020F4802008600846406820F4FE00486021
:100310004FF41F008860FFF7DAFF4FF000602949B3
:10032000086010BD10B5002100200022214B5B6841
:1003300003F00C0121B1042906D0082928D107E0D7
:10034000214B224C236027E01F4B204C236023E0ED
:10035000184B5B6803F47010164B5B6803F4803233
:10036000022303EB904022B9194B4343174C2360FF
:100370000DE0104B5B6803F4003323B1144B43438F
:10038000124C236003E0104B4343104C236003E006
:100390000D4B0E4C236000BF00BF064B5B68C3F3E0
:1003A00003130C4CE15C094B1B68CB40074C2360EA
:1003B00010BD000000100240002002400000FFF8C5
:1003C000FFFFF6FE08ED00E000127A0000000020BA
:1003D00000093D000400002070B505460C46012DC3
:1003E00077D1A4F11400082867D2DFE800F00434C4
:1003F0001D41114D295A0120AA4908700020AA491F
:1004000008700120A94908700020A94908705EE021
:100410000020A44908700120A3490870A34908706E
:100420000020A349087052E000209E4908709E49B0
:10043000087001209D49087000209D49087046E021
:100440000020984908709849087098490870012060
:10045000974908703BE001209249087000209249BA
:1004600008700120914908700020914908702EE021
:1004700000208C49087001208B4908708B49087056
:1004800000208B49087022E0002086490870012076
:10049000854908700020854908700120844908704A
:1004A00015E001207F49087000207F4908707F49CE
:1004B000087001207E49087009E000207949087021
:1004C00079490870794908707949087000BF74E06B
:1004D000FFE7022D5ED10B2C5BD2DFE804F05A3827
:1004E0003B393A34304806183C007248006808B975
:1004F000012000E000206F49086000206B4908706F
:100500006B490870674908706749087041E000202E
:1005100069490860962002F022FD01206749C1F870
:1005200088013C2002F01BFD002063490860C820C0
:1005300002F015FD01206149C1F8880129E060A0A1
:1005400003F0EDFE25E05FA003F0E9FE21E020E0EE
:100550001FE01EE01DE05C480078012803D1022066
:100560005949087002E001205749087011E05748C6
:100570000078012806D100205449087054A003F0E7
:10058000CEFE05E001205149087052A003F0C7FEDD
:1005900000BF12E0032D10D14F480078A04203DACB
:1005A0004EA003F0BCFE06E04B480078A04202DDFE
:1005B0004BA003F0B4FE4848047070BD1CB5022087
:1005C00002F000FD02F08EFC022002F0E5FD0120A9
:1005D00002F0E2FD02F0A4FE02F0F0FE002141F67E
:1005E0001F4003F019FD4FF4E13002F052FE4FF4CA
:1005F000165003F045FE03F067FD03F0B2FD03F073
:1006000077FB02F0DBF903F0F7FA08F098F908F04D
:10061000AAF947214FF6FF7003F0F6FB03F04CFFF9
:100620000CE0012008232FA200210090084603F0CF
:1006300076F9C82002F093FC03F038F803F0AAFF23
:100640000028EED103F032F801202A49402380220D
:10065000CDE900100021084603F063FA02F0F4FF30
:100660004FF4FA7002F07BFC03F0B2FE4FF4967088
:1006700002F075FC20A003F052FE4FF4967002F0D9
:100680006EFC14A003F04BFE04F019F808E01C48BF
:1006900003F0F8FF20B91A4A51781078FFF79CFE52
:1006A000F5E70000170400201804002015040020BE
:1006B00016040020B4012242880121420000214298
:1006C000413600004135000019040020620400207A
:1006D000413300004132000061040020423000003C
:1006E000423100004E524632344C30312045727255
:1006F0006F7200001400002042343A3030000000D5
:10070000D40500200948804709480047FEE7FEE776
:10071000FEE7FEE7FEE7FEE7FEE7FEE7FEE7FEE7B1
:1007200004480549054A064B70470000D7020008F7
:10073000ED000008F00B0020F0110020F00D00206B
:10074000F00D002031490143314A1160704770B506
:10075000002100230F22C47804B32D4C246804F434
:10076000E064C4F5E064210AC1F10403CA4044789E
:1007700004FA03F18478144021430901254C0678DA
:10078000A155047804F01F050124AC4005786D11D3
:10079000AD0005F1E025C5F8004109E0047804F05A
:1007A0001F050124AC401C4D0678761145F8264003
:1007B00070BD1A4A0A400243154B1B1F1A6070474E
:1007C00039B1134A121D12680243114B1B1D1A60E6
:1007D00006E00F4A121D126882430D4B1B1D1A6062
:1007E0007047042808D14FF0E021096941F0040165
:1007F0004FF0E022116107E04FF0E021096921F09C
:1008000004014FF0E0221161704700000000FA057A
:100810000CED00E000E400E080E100E080FFFF1F5D
:1008200010B50446FA48844208D10121401500F071
:10083000E3FD0021601500F0DFFD17E0F54884427C
:1008400008D10121001500F0D7FD0021201500F08E
:10085000D3FD0BE0F048844208D10121C80300F029
:10086000CBFD00214FF4004000F0C6FD10BD30B5B7
:100870000246002000235068E84C20400D790C68A7
:1008800044EA0524204350609068E54C2040D1E9BB
:1008900002542C434D7944EA450420439060D06AC9
:1008A00020F470000C7C641EE4B2234340EA035041
:1008B000D06230BD00210160017141718160C16071
:1008C00001210174704721B1826842F00102826007
:1008D00003E0826822F001028260704721B18268E1
:1008E00042F48072826003E0826822F48072826047
:1008F000704710B50023CBB21AB144681C43446062
:1009000002E044689C43446010BD816841F00801E6
:1009100081607047014600208A6802F008020AB12F
:10092000012000E000207047816841F004018160EF
:100930007047014600208A6802F004020AB10120D3
:1009400000E00020704721B1826842F4A00282607A
:1009500003E0826822F4A002826070470146002012
:100960008A6802F480020AB1012000E0002070478A
:1009700010B50A4600210023416821F46041531E4E
:1009800041EA4331416010BD21B1426842F4006246
:10099000426003E0426822F4006242607047F0B5B2
:1009A00004460D4600200021092D11DDE068A5F167
:1009B0000A0606EB4607072606FA07F18843A5F163
:1009C0000A0606EB460603FA06F10843E0600CE06F
:1009D000206905EB4507072606FA07F1884305EB72
:1009E000450603FA06F108432061072A0FDA606B17
:1009F000561E06EB86071F2606FA07F18843561E89
:100A000006EB860605FA06F10843606322E00D2A2C
:100A10000FDA206BD61F06EB86071F2606FA07F1B2
:100A20008843D61F06EB860605FA06F108432063C5
:100A300010E0E06AA2F10D0606EB86071F2606FA13
:100A400007F18843A2F10D0606EB860605FA06F1CA
:100A50000843E062F0BD21B1826842F480128260F6
:100A600003E0826822F48012826070470146C86CFD
:100A700080B2704766484C300068704721B14268C8
:100A800042F48062426003E0426822F48062426085
:100A9000704721B1426842F48052426003E04268EC
:100AA00022F48052426070470A460021816821F496
:100AB000E04111438160704721B1826842F40042F5
:100AC000826003E0826822F400428260704721B1B4
:100AD000826842F40212826003E0826822F4021209
:100AE00082607047014600208A6802F400120AB151
:100AF000012000E000207047F0B5044615460020B4
:100B000000220026092911DDE068A1F10A0707EBA0
:100B1000470C072707FA0CF29043A1F10A0707EBED
:100B2000470703FA07F21043E0600CE0206901EB8D
:100B3000410C072707FA0CF2904301EB410703FA37
:100B400007F210432061A06BC0F30156EF1C06F1C1
:100B5000010CA7EB0C0707EB870C1F2707FA0CF219
:100B60009043EF1C06F1010CA7EB0C0707EB87077E
:100B700001FA07F21043A063F0BD10B50A46002148
:100B80000023816B21F44011531E41EA035181631C
:100B900010BD08B5002300930090009B0B44009308
:100BA000009B1A6008BD08B5024600200090009224
:100BB00001F12800009B184400900098006880B262
:100BC00008BD0A4600214168164B19401143416097
:100BD00070474162826270470A460021416821F0F5
:100BE0001F0111434160704740B10949083109684C
:100BF00041F40001064A0832116007E00449083157
:100C0000096821F40001024A0832116070470000AF
:100C10000024014000280140003C0140FFFEF0FF9D
:100C2000FDF7F1FFFFFD3FFF0246002013680B4078
:100C30000BB1012000E000207047CA4302607047FA
:100C400070B502460020002300240B125568CEB276
:100C500005EA060415681D4015B10CB1012000E03D
:100C6000002070BD00220A12D343036070470000C9
:100C7000002044490860091D0860091D0860091D1D
:100C8000086041483F4914310860704700213D49E0
:100C90008279002A3AD00A46126803689A430B46C2
:100CA0001A600A1D126803689A430B1D1A600279C4
:100CB00011440A6803681A430A60324A083212680B
:100CC00003689A432F4B08331A601A1D1268036891
:100CD0009A432C4B0C331A604279102A0ED11A1FFA
:100CE000126803681A43274B08331A601A1D1268EA
:100CF00003681A43234B0C331A600DE021494279F3
:100D000011440A6803681A430A6005E00279114435
:100D10000A6803689A430A60704700210160017104
:100D20000C21417100218171704716491031096809
:100D30000143144A10321160704701460020114AE5
:100D4000143212680A400AB1012000E00020704706
:100D50000C49143108607047014600200022094BFD
:100D60001B6803EA0102074B14331B680B4013B1E5
:100D70000AB1012000E000207047024914310860E8
:100D80007047000000040140FFFF0F0010B504464B
:100D9000CC48844208D10121042000F02DFB002121
:100DA000042000F029FB46E0C748844208D1012115
:100DB000082000F021FB0021082000F01DFB3AE094
:100DC000C248844208D10121102000F015FB002107
:100DD000102000F011FB2EE0BD48844208D1012113
:100DE000202000F009FB0021202000F005FB22E07C
:100DF000B848844208D10121402000F0FDFA0021CA
:100E0000402000F0F9FA16E0B348844208D10121ED
:100E1000802000F0F1FA0021802000F0EDFA0AE0D5
:100E2000AE48844207D10121801500F0E5FA002187
:100E3000A01500F0E1FA10BD10B50121084600F040
:100E4000DBFA0021012000F0D7FA10BD2DE9F041B6
:100E5000024600250026002000230024002791F8E8
:100E600003C00CF00F0591F803C00CF0100CBCF19E
:100E7000000F03D091F802C04CEA050591F800C0BC
:100E8000BCF1000F31D0146800202BE04FF0010CB2
:100E90000CFA00F3B1F800C00CEA03069E4220D120
:100EA00083004FF00F0C0CFA03F7BC4305FA03FC68
:100EB0004CEA040491F803C0BCF1280F06D14FF0AE
:100EC000010C0CFA00FCC2F814C00AE091F803C04F
:100ED000BCF1480F05D14FF0010C0CFA00FCC2F830
:100EE00010C0401C0828D1D31460B1F800C0BCF178
:100EF000FF0F34DD546800202EE000F1080C4FF0A5
:100F0000010808FA0CF3B1F800C00CEA03069E428F
:100F100021D183004FF00F0C0CFA03F7BC4305FA04
:100F200003FC4CEA040491F803C0BCF1280F05D17E
:100F300000F1080C08FA0CF8C2F8148091F803C00C
:100F4000BCF1480F07D100F1080C4FF0010808FA76
:100F50000CF8C2F81080401C0828CED35460BDE8BD
:100F6000F0814FF6FF710180022181700421C17070
:100F700070470246002093680B400BB1012000E04F
:100F8000002070470146886880B270470246002002
:100F9000D3680B400BB1012000E0002070470146F0
:100FA000C86880B2704701617047416170470AB1FB
:100FB000016100E041617047C16070474FF48032C9
:100FC0000A43826181618261826982697047024657
:100FD0000020434B18684FF68073184040EA021017
:100FE00008433F4B186070473E49C8617047F0B5F1
:100FF0000A46002300240021002500F00046B6F137
:10100000004F02D1364EF16901E0354E7168C0F3F0
:10101000034583B200F44016B6F5401F08D121F015
:1010200070612F4E766826F070662D4F7E6012E05C
:1010300000F48016B6F5801F06D1032606FA05F4E3
:10104000A14341F0706106E0460D360103FA06F651
:10105000B14341F0706122B1460D360103FA06F644
:10106000314300F00046B6F1004F02D11C4EF16151
:1010700001E01B4E7160F0BD30B500228B071C0FE4
:101080000F2303FA04F2164B08338C1053F8243064
:101090009343134C08348D1044F8253023468C10AC
:1010A00053F824308C07240F00FA04F423430C4C2B
:1010B00008348D1044F8253030BD0A49DC31086011
:1010C0007047000000080140000C01400010014082
:1010D0000014014000180140001C014000200140A4
:1010E0000000014000002042DF48006840F001009D
:1010F000DD49086008464068DC490840DA49486034
:1011000008460068DA490840D74908600846006880
:1011100020F4802008600846406820F4FE00486003
:101120004FF41F0088607047CF49096821F480316F
:10113000CD4A11601146096821F480211160B0F593
:10114000803F03D0B0F5802F0ED106E0C649096874
:1011500041F48031C44A116007E0C349096841F491
:10116000A021C14A116000E000BF00BF704710B568
:1011700001460022002300204A11012A02D1BA4C64
:10118000236806E0022A02D1B74C236A01E0B64C7C
:10119000636A01F01F02012494401C400CB101203D
:1011A00000E0002010BD38B500200090002400258C
:1011B00000BF3120FFF7DBFF05460098401C009080
:1011C0000098B0F5A06F01D0002DF2D03120FFF7CC
:1011D000CEFF08B1012400E00024204638BD0146BE
:1011E0000020A14A106820F0F80040EAC100106019
:1011F0007047A04908607047024600209A4B586823
:1012000020F47C1042EA01031843974B5860704762
:1012100098490866704701460020934A506820F0BC
:1012200003000843506070478F48406800F00C008E
:101230007047014600208C4A506820F0F0000843B7
:101240005060704701460020874A506820F4E060F3
:1012500008435060704701460020834A506820F4DC
:10126000605040EAC1005060704729B17E4A527A0E
:1012700002437D4B5A7204E07B4A527A82437A4B96
:101280005A7270477B49D831086070470146002088
:10129000754A506820F44040084350607047002170
:1012A000714A20321170704A82F82010012802D051
:1012B00004280AD104E001216B4A2032117005E0B4
:1012C0000521694A2032117000E000BF00BF70475D
:1012D0006949086070476449096A0143624A1162BA
:1012E0007047654944390860704730B500210022D5
:1012F000002400235C4D6D6805F00C0121B1042928
:1013000005D0082923D105E05C4D056022E05B4D46
:1013100005601FE0544D6D6805F47012524D6D6804
:1013200005F48034022505EB92421CB9544D554317
:1013300005600BE04C4D6D6805F400351DB1504D56
:101340005543056002E04D4D5543056002E04B4DAD
:10135000056000BF00BF444D6D6805F0F00109094C
:10136000484D6B5C0568DD4045603F4D6D6805F498
:10137000E061090A434D6B5C4568DD4085603A4D8C
:101380006D6805F46051C90A3E4D6B5C4568DD40EF
:10139000C560354D6D6805F44041890B3A4D6B5C75
:1013A000C568B5FBF3F5056130BD29B12E4A526918
:1013B00002432D4B5A6104E02B4A526982432A4B67
:1013C0005A61704729B1284A92690243264B9A61B3
:1013D00004E0254A92698243234B9A61704729B100
:1013E000214AD2690243204BDA6104E01E4AD269E5
:1013F00082431D4BDA61704729B11B4AD268024310
:10140000194BDA6004E0184AD2688243164BDA605E
:10141000704729B1144A12690243134B1A6104E060
:10142000114A12698243104B1A61704712494039C0
:10143000086070470F49C86470470B49C87170470E
:101440000948406A40F08070074948627047014689
:101450000020054A92680A400AB1012000E00020FD
:101460007047014988727047001002400000FFF881
:10147000FFFFF6FE000042428004424200127A0062
:1014800000093D00630400207304002010B50446E9
:10149000BE48844208D101218014FFF7ADFF00212E
:1014A000A014FFF7A9FF16E0B948844208D1012132
:1014B0000014FFF7AEFF00212014FFF7AAFF0AE097
:1014C000B448844207D10121C013FFF7A2FF0021D5
:1014D000E013FFF79EFF10BD10B50022028802F452
:1014E00041520B884C8823438C882343CC88234368
:1014F0000C8923434C8923438C892343CC89234380
:101500001A430280838B4FF2FF74234083830B8A3C
:10151000038210BD2DE9F04F85B005460C464FF013
:10152000000902274FF000084FF0010B0026B246D9
:10153000A88B4FF240010840A88302202884B5F808
:101540001C90A068022801D100BF38E0A08810B923
:101550004FF0010B01E04FF0020B8D48854200D1A6
:1015600000E000BF6846FFF7C0FEDDF800A0E0889D
:10157000B0F5007F0AD14FEA1A2000EB800040004E
:10158000A168B0FBF1F0401D86B20BE04FEA4B10B2
:10159000BAFBF0F000EB80004000A168B0FBF1F076
:1015A000401D86B20A20B6FBF0F606F00108A6EB55
:1015B0000800C0F34F074FF6FF7000EA0828022F1B
:1015C00001DBFF2F02DD02274FF00008E08840EA30
:1015D000080038432884A088A1890843618808430B
:1015E0002188084340F4006040EA0909A5F81C90EE
:1015F00005B0BDE8F08F0021018041808180C1806D
:10160000018141818181C1810721018270470021CF
:10161000018041808180C18002218160002181811F
:10162000704721B1028842F04002028004E0028843
:101630004FF6BF731A400280704721B1828B42F48B
:101640008062828304E0828B4FF6FF331A408283EC
:10165000704730B5002400230C110125A540ABB222
:101660001AB185881D43858002E085889D43858069
:1016700030BD1AB183880B43838002E083888B439B
:1016800083807047818170470146888970474FF693
:10169000FF62914204D0028842F48072028004E02A
:1016A00002884FF6FF631A400280704721B182889A
:1016B00042F00402828004E082884FF6FB731A40F5
:1016C0008280704702884FF2FF731A4002800288BE
:1016D0000A4302807047018841F4805101807047BD
:1016E00021B1028842F40052028004E002884DF6E3
:1016F000FF731A400280704702460020012901D082
:10170000108B00E0908A70470146088A7047B1F557
:10171000804F04D1028842F48042028004E00288B3
:101720004BF6FF731A40028070470246002013896F
:101730000B400BB1012000E000207047CA4302813A
:101740007047F0B50246002000240023002501F078
:101750000F070126BE40B4B20B1101269E40B3B262
:10176000968806EA03051689264016B10DB10120B8
:1017700000E00020F0BD10B5002201F00F040123AD
:10178000A3409AB2D343038110BD00000030014052
:1017900000380040003C004010B50446FE4884423A
:1017A00008D10121C014FFF727FE0021E014FFF744
:1017B00023FEC4E0B4F1804F08D101210846FFF7B1
:1017C00028FE00210120FFF724FEB8E0F348844200
:1017D00008D101210220FFF71CFE00210220FFF7A3
:1017E00018FEACE0EE48844208D101210420FFF746
:1017F00010FE00210420FFF70CFEA0E0E94884421F
:1018000008D101210820FFF704FE00210820FFF77E
:1018100000FE94E0E448844208D101211020FFF743
:10182000F8FD00211020FFF7F4FD88E0DF48844236
:1018300008D101212020FFF7ECFD00212020FFF737
:10184000E8FD7CE0DA48844208D101214014FFF72A
:10185000D3FD00216014FFF7CFFD70E0D54884422E
:1018600009D10121C804FFF7C7FD00214FF4002072
:10187000FFF7C2FD63E0D048844209D10121080589
:10188000FFF7BAFD00214FF48010FFF7B5FD56E0D9
:10189000CA48844209D101214805FFF7ADFD002166
:1018A0004FF40010FFF7A8FD49E0C548844208D175
:1018B00001214020FFF7ADFD00214020FFF7A9FDE9
:1018C0003DE0C048844208D101218020FFF7A1FDFE
:1018D00000218020FFF79DFD31E0BB48844208D104
:1018E00001218015FFF795FD0021A015FFF791FD5F
:1018F00025E0B648844209D101210804FFF77CFDA8
:1019000000214FF48030FFF777FD18E0B0488442A3
:1019100009D101214804FFF76FFD00214FF4003089
:10192000FFF76AFD0BE0AB48844208D1012188042F
:10193000FFF762FD00214FF48020FFF75DFD10BD31
:1019400000220288944B98420ED0994B98420BD0BB
:10195000B0F1804F08D0914B984205D0904B9842FF
:1019600002D0904B984204D14FF68F731A404B88A7
:101970001A438D4B984207D08C4B984204D04FF6B7
:10198000FF431A40CB881A4302808B8883850B88DB
:101990000385814B98420BD0854B984208D08B4BE6
:1019A000984205D08A4B984202D08A4B984201D186
:1019B0000B7A038601238382704770B500240022CE
:1019C0000023058C4FF6FE7635400584028C838813
:1019D000048B4FF68F752C40B51E2C400D882C4380
:1019E000751E2A400D892A434D882A436A4DA84214
:1019F0000BD06F4DA84208D0744DA84205D0744D4D
:101A0000A84202D0734DA84213D14FF6F7752A4071
:101A10004D892A434FF6FB752A408D882A434FF69D
:101A2000FF652B404FF6FF552B408D892B43CD8909
:101A30002B4383800483CD888586028470BD70B576
:101A4000002400220023058C4FF6EF7635400584F4
:101A5000028C8388048B48F6FF752C404FF6FF45B7
:101A60002C400D884FF6FF7606EA05252C434FF6ED
:101A7000DF752A400D8906EA05152A434D8806EAD6
:101A800005152A43444DA84202D0494DA8421DD114
:101A90004FF67F752A404D894FF6FF7606EA051509
:101AA0002A434FF6BF752A408D8806EA05152A435A
:101AB0004FF6FF352B404FF2FF752B408D8906EA1C
:101AC00085052B43CD8906EA85052B438380048356
:101AD000CD880587028470BD70B5002400220023E4
:101AE000058C4FF6FF6635400584028C8388848B15
:101AF0004FF68F752C404FF6FC752C400D882C430B
:101B00004FF6FF552A400D894FF6FF7606EA052568
:101B10002A434D8806EA05252A431F4DA84202D0D4
:101B2000234DA8421DD14FF2FF752A404D894FF633
:101B3000FF7606EA05252A434FF6FF352A408D88B1
:101B400006EA05252A434EF6FF752B404DF6FF7534
:101B50002B408D8906EA05152B43CD8906EA05152C
:101B60002B4383808483CD888587028470BD70B5C4
:101B7000002200230024058C4EF6FF7635400584B4
:101B8000038C8488828B48F6FF752A404FF6FF4508
:101B90002A400D8820E00000002C01400004004095
:101BA00000080040000C00400010004000140040FD
:101BB00000340140004C01400050014000540140FD
:101BC00000180040001C0040002000400040014080
:101BD00000440140004801404FF6FF7606EA052523
:101BE0002A434DF6FF752B400D8906EA05352B4338
:101BF0004D8806EA05352B43FA4DA84202D0FA4D2E
:101C0000A84208D14BF6FF752C408D894FF6FF7620
:101C100006EA85152C4384808283CD88A0F8405045
:101C2000038470BD828B4FF2FF331A408283828B14
:101C30004FF6FF7303EA01231A4382837047F0B51E
:101C40000C461546002200210026078C4EF6FF7C2C
:101C500007EA0C070784828B018C4FF6FF7707EAAF
:101C6000043640F6FF473A404FF6FF7707EA05276C
:101C70003A434FF6FF7707EA03373A43D94FB84262
:101C80000ED0D94FB8420BD0B0F1804F08D0D74F0B
:101C9000B84205D0D64FB84202D0D64FB84206D18E
:101CA0004DF6FF77394046F48057394305E047F653
:101CB000FF57394044F48057394382830184F0BD93
:101CC000828B4FF6F3731A408283828B0A4382839E
:101CD0007047F0B50C461546002200210026078CFF
:101CE0004FF6FF6C07EA0C070784828B018C4FF6D6
:101CF000FF7707EA04264FF60C773A404FF6FF7756
:101D000007EA03172F433A43B64FB8420ED0B64FF7
:101D1000B8420BD0B0F1804F08D0B44FB84205D0D4
:101D2000B34FB84202D0B34FB84206D14FF6FF5777
:101D3000394046F48077394305E04FF2FF57394088
:101D400044F48077394382830184F0BD028B4FF2E3
:101D5000FF331A400283028B4FF6FF7303EA01231D
:101D60001A4302837047F0B50C4615460022002145
:101D70000026078C4FF6EF7C07EA0C070784028BDE
:101D8000018C4FF6FF7707EA041640F6FF473A400A
:101D90004FF6FF7707EA03373A434FF6FF7707EA34
:101DA00005273A438F4FB8420ED08F4FB8420BD021
:101DB000B0F1804F08D08D4FB84205D08C4FB8425B
:101DC00002D08C4FB84206D14FF6DF77394046F04B
:101DD0001007394305E04FF65F77394044F01007AC
:101DE000394302830184F0BD028B4FF6F3731A402E
:101DF0000283028B0A4302837047F0B50C461546F6
:101E000000220021068C4FF6FE773E400684028BAE
:101E1000018C4FF60C7632407E1C06EA03162E43E8
:101E20003243704EB0420ED06F4EB0420BD0B0F184
:101E3000804F08D06D4EB04205D06D4EB04202D0FA
:101E40006C4EB04206D14FF6FD76314044F00106AB
:101E5000314305E04FF6F576314044F00106314359
:101E600002830184F0BD70B505460C465D4885428D
:101E70000ED05D4885420BD0B5F1804F08D05B484D
:101E8000854205D05A48854202D05A48854200D141
:101E900000E000BF208850B92389A28861882846C5
:101EA000FFF7ABFFE1882846FFF79EFF25E020887B
:101EB00004280AD12389A28861882846FFF753FFA6
:101EC000E1882846FFF742FF17E0208808280AD15A
:101ED0002389A28861882846FFF7FBFEE18828460F
:101EE000FFF7EEFE09E02389A28861882846FFF704
:101EF000A6FEE1882846FFF795FE70BD2DE9F0416A
:101F000005460C4600260127608808B9022600E035
:101F10000026A088012801D1022700E0012720889F
:101F2000A0B92389A28861882846FFF766FFE18867
:101F30002846FFF759FF23893A4631462846FFF7DE
:101F400012FFE1882846FFF701FF13E02389A288EA
:101F500061882846FFF707FFE1882846FFF7F6FE6D
:101F600023893A4631462846FFF747FFE18828464D
:101F7000FFF73AFFBDE8F0810A884B881A438B8847
:101F80001A43CB881A430B891A434B891A438B890E
:101F90001A43A0F8442070474FF6FF71818000215A
:101FA0000180C18041800172704700210180418021
:101FB0008180C180018141818181C181704700217F
:101FC00001804180012181800021C1800181704711
:101FD0000021018041808180C18001814181818116
:101FE00070470000002C0140003401400004004014
:101FF00000080040000C004021B1028842F00102BC
:10200000028004E002884FF6FE731A400280704797
:1020100031B1B0F8442042F40042A0F8442005E079
:10202000B0F84420C2F30E02A0F8442070471AB161
:1020300083890B43838102E083898B4383817047CB
:102040008182704741EA0203A0F8483070471AB114
:1020500083890B43838102E083898B4383817047AB
:1020600001894FF6F8721140018170470A4600213C
:1020700001894FF68F73194011430181704730B5C4
:1020800004460D4629462046FFF7F0FF208940F020
:102090000700208130BD2DE9F04104460D4616466B
:1020A0001F46602D06D13B46012231462046FFF7F0
:1020B0005AFE05E03B46012231462046FFF79DFED1
:1020C00029462046FFF7D2FF208940F007002081F3
:1020D000BDE8F08130B50C4600210189C9B24FF648
:1020E000FF7505EA0325154325432943018130BDCA
:1020F0002DE9F04105460E46174698460024434612
:102100003A4631462846FFF7E5FF2C894FF6F8702E
:10211000044044F007044FF68F70044044F070040C
:102120002C81BDE8F081F0B504460D4616461F46E9
:102130003B46324629462046FFF7CCFF208940F433
:1021400080402081F0BD0185828270470A460021CF
:1021500001884FF68F731940114301807047F0B525
:102160000C4615461E460021002200230189028BE1
:10217000038C4FF6F877394021434FF6FC473A403D
:1021800040F201173A434FF6DD773B404FF6FF77B9
:1021900007EA06172F433B43018102830384F0BD06
:1021A0000A460021018B4FF68F73194011430183BA
:1021B00070470A460021018B48F6FF7319404FF61D
:1021C000FF7303EA02231943018370470A46002183
:1021D000818B4FF68F7319401143818370470A46F4
:1021E0000021818B48F6FF7319404FF6FF7303EA15
:1021F000022319438183704721B1028842F0800293
:10220000028004E002884FF67F731A400280704714
:1022100021B1828842F00402828004E082884FF675
:10222000FB731A408280704721B1828842F0080215
:10223000828004E082884FF6F7731A4082807047EC
:1022400021B1828842F00102828004E082884FF648
:10225000FE731A40828070470A460021018B4FF6B8
:10226000F77319401143018370470A460021018B1F
:102270004FF2FF7319404FF6FF7303EA022319432D
:10228000018370470A460021818B4FF6F77319408E
:102290001143818370470A460021818B4FF2FF73FF
:1022A00019404FF6FF7303EA0223194381837047F5
:1022B0000A460021018B4FF6FB731940114301833D
:1022C00070470A460021018B4FF6FF3319404FF645
:1022D000FF7303EA02231943018370470A46002172
:1022E000818B4FF6FB7319401143818370470A4677
:1022F0000021818B4FF6FF3319404FF6FF7303EA3D
:1023000002231943818370470A460021018B4FF64F
:102310007F7319401143018370470A460021018BE6
:10232000C1F30E014FF6FF7303EA02231943018341
:1023300070470A460021818B4FF67F731940114385
:10234000818370470A460021818BC1F30E014FF64D
:10235000FF7303EA02231943818370470A46002171
:10236000018C4FF6FD7319401143018470470A46F2
:102370000021018C4FF6F773194011430184704717
:102380000A460021018C4FF6DF7319404FF6FF73A8
:1023900003EA02131943018470470A460021018CA5
:1023A0004FF67F7319404FF6FF7303EA0213194388
:1023B000018470470A460021018C4FF6FF531940F3
:1023C0004FF6FF7303EA02231943018470470A465C
:1023D0000021018C4FF2FF7319404FF6FF7303EA9F
:1023E00002231943018470470A460021018C4DF6EF
:1023F000FF7319404FF6FF7303EA02331943018458
:10240000704730B5002301248C40A3B2048C9C4358
:102410000484048C02FA01F5ADB22C43048430BD6F
:1024200030B5002304248C40A3B2048C9C43048464
:10243000048C02FA01F5ADB22C43048430BD70B5B2
:102440000346002000241846183001258D40ACB208
:102450001D8CA5431D8409B1082909D100EB610039
:10246000056825F0700505600568154305600EE0F8
:102470000D1FC5F34E052844056825F4E0450560A9
:1024800005684FF6FF7606EA02263543056070BD03
:1024900021B1028842F00202028004E002884FF675
:1024A000FD731A400280704721B1028842F0040295
:1024B000028004E002884FF6FB731A4002807047E6
:1024C00021B1828842F08002828004E082884FF647
:1024D0007F731A408280704702884FF6F7731A4064
:1024E000028002880A430280704782884FF68F7309
:1024F0001A40828082880A438280704702894FF6A0
:10250000F8731A40028102890A43028170470289E6
:102510004FF67F731A40028102890A430281704795
:102520008184704781857047818670470187704735
:1025300081877047A0F84010704702884FF6FF432C
:102540001A40028002880A43028070470146888E42
:1025500070470146088F70470146888F70470146D3
:10256000B1F8400070470146888C70470146088DDD
:10257000704702460020138A0B400BB1012000E097
:1025800000207047CA430282704730B502460020DF
:1025900000230024158A05EA0103958905EA010450
:1025A00013B10CB1012000E0002030BDCA4302820B
:1025B0007047000010B50446FB48844209D1012150
:1025C0008803FEF719FF00214FF48040FEF714FF47
:1025D00032E0F648844209D101214804FEF719FF90
:1025E00000214FF40030FEF714FF25E0F04884424C
:1025F00009D101218804FEF70CFF00214FF480204F
:10260000FEF707FF18E0EB48844209D10121C80416
:10261000FEF7FFFE00214FF40020FEF7FAFE0BE06C
:10262000E548844208D101210805FEF7F2FE0021A9
:102630004FF48010FEF7EDFE10BD2DE9F04786B097
:1026400005460E460024A24600BFA1460027B089D9
:1026500000B100BF2F462C8A4CF6FF700440F08872
:1026600004432C82AC894EF6F3100440B0883189C3
:102670000843718908430443AC81AC8A4FF6FF409C
:102680000440B0890443AC8201A8FEF72EFEC64880
:10269000874202D1DDF810A001E0DDF80CA0A88986
:1026A00000F4004040B10AEBCA0000EB0A103168A8
:1026B0004900B0FBF1F807E00AEBCA0000EB0A1092
:1026C00031688900B0FBF1F86420B8FBF0F0040138
:1026D0002009642101FB1089A88900F4004040B161
:1026E000322000EBC900B0FBF1F000F0070004431A
:1026F00008E0322000EB09106421B0FBF1F000F09B
:102700000F0004432C8106B0BDE8F0874FF416514A
:10271000016000218180C18001810C214181002163
:102720008181704710B502460020108A4FF2FF03E6
:1027300018400B884C8823438C882343CC88234340
:102740001843108210BD0021018041808180C1802A
:10275000704721B1828942F40052828104E082896B
:102760004DF6FF731A4082817047F0B5034600248E
:1027700000260025002040F66A17B94200D100BFAC
:102780001846C1F3421401F01F06012707FA06F5A7
:10279000012C01D10C3004E0022C01D1103000E0FA
:1027A00014301AB107682F43076002E00768AF438F
:1027B0000760F0BD1AB1838A0B43838202E0838AEB
:1027C0008B4383827047028A4FF6F0731A4002826D
:1027D000028A0A430282704782894FF2FF731A40CD
:1027E000828182890A438281704721B1828942F0C5
:1027F0000202828104E082894FF6FD731A408281D1
:102800007047028A4FF6DF731A400282028A0A4337
:102810000282704721B1028A42F48042028204E0BF
:10282000028A4BF6FF731A4002827047C1F3080216
:102830008280704701468888C0F30800704781890C
:1028400041F0010181817047028BD2B20283028B79
:1028500042EA012202837047028B02F47F42028324
:10286000028B0A430283704721B1828A42F0200220
:10287000828204E0828A4FF6DF731A4082827047B8
:1028800021B1828A42F01002828204E0828A4FF6ED
:10289000EF731A408282704721B1828A42F00802A7
:1028A000828204E0828A4FF6F7731A408282704770
:1028B00021B1828942F40042828103E08289C2F31D
:1028C0000E028281704721B1828A42F400628282C4
:1028D00004E0828A4FF2FF731A4082827047828A34
:1028E0004FF6FB731A408282828A0A4382827047C3
:1028F00021B1828A42F00202828204E0828A4FF68B
:10290000FD731A408282704702460020B1F5007FB5
:1029100000D100BF13880B400BB1012000E0002064
:10292000704701F40072B2F5007F00D100BFCA43C6
:102930000280704770B50246002400230025002065
:1029400040F66A16B14200D100BFC1F3421501F052
:102950001F03012606FA03F3012D02D196893340A5
:1029600006E0022D02D1168A334001E0968A3340F8
:102970000C12012606FA04F41688344013B10CB187
:10298000012000E0002070BD10B50022002340F6B9
:102990006A14A14200D100BF0A1201249440A3B2DC
:1029A000DC43048010BD00000038014000440040BA
:1029B00000480040004C00400050004008B5012194
:1029C0000820FEF7FFFC4FF44070ADF80000102027
:1029D0008DF8030003208DF802006946F748FEF7E2
:1029E00035FA08BD10B5F548001D006820F0F0006C
:1029F000F249091D08600846006840F03000086090
:102A00000120EF490860EF48D0F8240108B9002000
:102A100010BD0120EA49091F086000F07CFA00207F
:102A2000E849C1F8A401E6488038006808B10020F0
:102A3000EEE7012000F06FFA0020E149091F08606D
:102A40000120E5E710B5DD48001D006820F0F0002A
:102A5000DA49091D08600846006840F03000086047
:102A60000020D749091F0860D649C1F8A4010120F8
:102A700000F051FA0120D249091F0860D149C1F87C
:102A8000A40100F048FA10BD10B50024CB48001D89
:102A9000006820F0F000C949091D08600846006878
:102AA00040F0800008600120C549086000F033FA5A
:102AB0000120C449C1F8A00100F02DFA0AE0601C11
:102AC000C4B2322C03DDFFF7BDFF002010BD012092
:102AD00000F021FABA48803800680028EFD1B849E0
:102AE000091F08600120F1E710B50020B449091F53
:102AF0000860B248001D006820F0F000AF49091DD1
:102B000008600846006840F0300008600020AD49C9
:102B1000C1F8A401012000F0FEF90120A849091F15
:102B2000086000F0F8F90020A649C1F8A00110BD26
:102B300010B50020A249091F0860A048001D0068C8
:102B400020F0F0009D49091D08600846006840F02B
:102B50003000086001209B49C1F8A40100F0DBF9B6
:102B600001209749091F086000F0D5F90020954918
:102B7000C1F8A00110BD70B504469048001D006862
:102B800020F0F0008D49091D08600846006840F0FB
:102B90003000086000208A49091F0860002516E0FF
:102BA000E009874908606006040E012000F0B3F9CF
:102BB00001208449C1F8A00100F0ADF9002080494E
:102BC000091F0860012000F0A6F9681CC5B2082D95
:102BD000E6DB70BD2DE9F04105460E4617469846E6
:102BE000FFF700FF10B90120BDE8F0816906080E6B
:102BF000FFF7C1FFFFF748FF18B9FFF723FF0120D8
:102C0000F2E73046FFF7B7FFFFF73EFF00240BE087
:102C100018F80400FFF7AFFFFFF736FF18B9FFF70A
:102C200011FF0020E0E7641CBC42F1DBFFF70AFF64
:102C30000020D9E770B5054600246048001D0068F3
:102C400020F0F0005D49091D08600846006840F06A
:102C500080000860002617E000205949091F08601D
:102C6000022000F058F901205649C1F8A001600681
:102C7000040E53488038006808B1601CC4B20220BA
:102C800000F049F9701CC6B2082EE5DB15B1FFF75C
:102C90002BFF01E0FFF74CFF204670BD2DE9F0410E
:102CA00006460F4614461D46FFF79CFE10B901204C
:102CB000BDE8F0817106080EFFF75DFFFFF7E4FE47
:102CC00018B9FFF7BFFE0120F2E73846FFF753FFC0
:102CD000FFF7DAFEFFF786FE012101EB4601C8B2DD
:102CE000FFF749FFFFF7D0FE0DE0012C04D10020D3
:102CF000FFF7A0FF287003E00120FFF79BFF28707B
:102D00006D1C601EC4B2002CEFD1FFF79BFE0020AB
:102D1000CEE770B505460E460024FFF763FE284651
:102D2000FFF729FF641CFFF7AFFE3046FFF723FFD4
:102D3000641CFFF7A9FEFFF755FE691CC8B2FFF738
:102D40001AFF641CFFF7A0FE0020FFF773FF044684
:102D5000FFF778FE204670BD2DE9F0410746884612
:102D600015461E460024FFF73DFE3846FFF703FFD9
:102D7000FFF78AFE4046FFF7FEFEFFF785FEFFF7EE
:102D800031FE791CC8B2FFF7F6FEFFF77DFE00BFEB
:102D90000DE0681EA04204D00120FFF74BFF305524
:102DA00003E00020FFF746FF3055601CC4B2AC4280
:102DB000EFDBFFF747FE2046BDE8F081000C014045
:102DC000A4812142008021422DE9F04180460D4638
:102DD00016461F460024FFF705FE4046FFF7CBFED0
:102DE000FFF752FE2846FFF7C6FEFFF74DFE00BF75
:102DF00006E0385DFFF7BFFEFFF746FE601CC4B279
:102E0000B442F6DBFFF71EFE0120BDE8F08170B58D
:102E100005460E46144631462846FFF77AFF2070D5
:102E2000012070BD37B504460D4602AB012229468C
:102E30002046FFF7C9FF3EBD2DE9F8430746884607
:102E400014461D46089E6A4641463846FFF7DFFF96
:102E500028B3601CFF2101FA00F0C4F108012944E5
:102E6000491EFF220A41104300F0FF09C5F1080086
:102E700006FA00F0C6B2C4F1070006419DF8000052
:102E800000EA090000909DF80000304300909DF892
:102E9000002041463846FFF7C5FFBDE8F883002013
:102EA000FBE7F8B506460F4614461D466A46394606
:102EB0003046FFF7ACFF2DB10120A0409DF8001077
:102EC000084305E00120A0409DF8001021EA000021
:102ED000C0B200909DF8002039463046FFF7A2FFAF
:102EE000F8BD000010B56FF00400FDF77AFC2E4825
:102EF00000682E49B0FBF1F02D49087008460078B3
:102F000000EB4001C1EBC0104FF6FF7101EAC000B9
:102F10002849088010BD0146254A12784A434FF0DF
:102F2000E0235A6100229A611A46126942F00102B6
:102F30001A6100BF4FF0E022106900F001021AB1DF
:102F400000F48032002AF5D04FF0E022126922F01E
:102F500001024FF0E0231A6100229A617047014696
:102F6000144A12884A434FF0E0235A6100229A61C2
:102F70001A46126942F001021A6100BF4FF0E022C6
:102F8000106900F001021AB100F48032002AF5D075
:102F90004FF0E022126922F001024FF0E0231A61A3
:102FA00000229A61704700000000002000127A00A1
:102FB000780400207A040020A34A0A400243A34B6D
:102FC0001A6070470146072323EA010212029F4B51
:102FD0001B1D18684FF6FF0318409D4B1843104304
:102FE0009A4B1B1D186070472DE9F0410746884633
:102FF00014461D462846FFF7E5FFC5F1040007FA11
:1030000000F60F20284100EA0800064306F00F06EC
:10301000E21704EBD2625211920002F1E022D2F8E0
:1030200000212146E31704EBD3635B11A4EB431C9F
:10303000012303FA0CF31A432046E31704EBD3638E
:103040005B119B0003F1E023C3F800218148005D80
:1030500040EA06107F490855BDE8F08170B5044686
:103060000B46CE1701EB9676C6F38700CE1701EB21
:103070009676B610A1EB8606B606350E764B9B69A2
:1030800043F00103744EB3614FEAB63353F8203076
:103090000F26AE40B343714E46F82030334653F806
:1030A000203004FA05F61E436C4B43F820606C4B4D
:1030B0001B6801268E403343694E336002F00103E2
:1030C00043B1674B0C331B6801268E403343644E7B
:1030D0000C36336002F0020343B1614B08331E68C3
:1030E00001238B401E435E4B08331E6070BD00B54C
:1030F000002059490861C860142048610020886197
:10310000C8610846006840F0010008600846406851
:1031100054490840504948600846006852490840F0
:103120004D4908600846006820F480200860084681
:10313000406820F4FE0048600020886000214FF0C5
:103140000060FFF739FF00BD10B540480830006847
:1031500040F004003D49083108603F48C06940F034
:1031600080503D49C8614148406840F480703F4903
:1031700048600846006840F004000860084600689F
:1031800040F002000860FDF723F810BD3048001D34
:103190002E49091D08607047014649062E4A92696A
:1031A00042F001022C4B9A612C4A083A526822F0F4
:1031B000E0622A4B083B5A601A4652680A435A603A
:1031C000704730B504460025FFF791FF224800689C
:1031D00040F480302049086000BF1F480068400C60
:1031E0000028FAD04FF480601B494860A01EC4B28A
:1031F0000846406840EA844048600846406840F419
:10320000803048601A48006840F032001849086071
:103210001148006840F080700F49086000BF0E48F8
:103220000068400E0028FAD00B48406840F00200C9
:103230000949486005E008484068C0F3870505F083
:103240000305022DF7D130BD80FFFF1F08ED00E020
:103250000000FA0500E400E0001002400800014010
:10326000000401400000FFF8FFFFF6FE0070004080
:1032700000200240014600BF704700BF244A128868
:1032800002F04002002AF9D0C2B2214B1B1D1A8065
:10329000704710B586B00446012144F20400FEF7E1
:1032A00091F84FF40070ADF8140003208DF816006B
:1032B00018208DF8170005A91648FDF7C7FD4FF433
:1032C0008060ADF8140004208DF8170005A911489E
:1032D000FDF7BCFD01940020ADF80800ADF80A0030
:1032E000ADF80C00ADF810000C20ADF80E0001A9EF
:1032F0000748FFF7A2F9002240F225510448FFF7E2
:1033000034FA01210248FFF724FA06B010BD00008C
:103310000038014000080140012022490860704740
:1033200008B501211020FEF74DF84FF40050ADF81C
:10333000000010208DF8030003208DF8020069467C
:103340001948FDF783FD01210420FEF73BF8042016
:10335000ADF8000010208DF8030003208DF8020066
:1033600069461248FDF772FDFFF7D6FF08BD18B990
:1033700000210F4A11600FE00E490968491C0D4AEF
:103380001160814208D10A490968C9430A4AC2F852
:10339000B4110021074A11607047002001490860FC
:1033A00070470000880121420010014000080140E0
:1033B000B4012242800400200000224208B501210D
:1033C0000820FDF7FFFF2020ADF8000048208DF811
:1033D000030069464B48FDF739FD08BD01464A48E0
:1033E000006828B949480088401C484A108002E01B
:1033F0000020464A10804448006828B944480078B4
:1034000010B90120424A107042480078B0B94048D3
:103410000078012807D140480078401C3E4A1070CF
:1034200001203C4A10703C480078022806D1002058
:10343000394A1070394A10800220704732480068BB
:10344000012804D10020324A1070324A10703248EC
:10345000007801281CD131480088401C2F4A108078
:103460001046008888420ADD28480088884206DA2B
:103470000020294A1070294A10800120DDE72348E6
:103480000088884204DD0020234A1070234A1080FF
:103490000020D2E72248007838B11B48006820B9E4
:1034A00000201F4908700120704717480068012854
:1034B00001D11B4908700020F6E71A48008840B97E
:1034C0001148006828B918480088401C164908802F
:1034D00002E000201449088013480088C82807DD4E
:1034E00001201049088000200F4908800120704702
:1034F0000C480088012802D100200A4908800020D9
:10350000F5E70000000C0140148121428A040020EC
:103510008404002085040020860400208804002004
:103520008C040020900400208E04002070B5054615
:103530000C46FFF757FA7820FFF71DFBFFF7A4FAB8
:103540001CB14020FFF717FB02E00020FFF713FB40
:10355000FFF79AFA2846FFF70EFBFFF795FAFFF7F9
:1035600071FA70BD10B504461CB90021A620FFF702
:10357000DDFF012C03D10021A720FFF7D7FF10BDED
:1035800010B504463CB90021C820FFF7CFFF002149
:10359000A120FFF7CBFF012C07D10021C020FFF7AE
:1035A000C5FF0021A020FFF7C1FF10BD70B50024AA
:1035B0002BE004F1B001C8B20021FFF7B7FF0021F2
:1035C0000846FFF7B3FF00211020FFF7AFFFFFF71A
:1035D00009FA7820FFF7CFFAFFF756FA4020FFF7F5
:1035E000CAFAFFF751FA002509E0F84901EBC501D5
:1035F000085DFFF7C0FAFFF747FA681CC5B2802DD7
:10360000F3DBFFF71FFA601CC4B2082CD1DB70BDDE
:1036100010B500218D20FFF789FF00211420FFF74E
:1036200085FF0021AF20FFF781FF10BD10B50021FD
:103630008D20FFF77BFF00211020FFF777FF00218F
:10364000AE20FFF773FF10BD70B500242BE004F12E
:10365000B001C8B20021FFF769FF00210846FFF75B
:1036600065FF00211020FFF761FFFFF7BBF978200D
:10367000FFF781FAFFF708FA4020FFF77CFAFFF71F
:1036800003FA002509E0D14901EBC501085DFFF708
:1036900072FAFFF7F9F9681CC5B2802DF3DBFFF76A
:1036A000D1F9601CC4B2082CD1DB70BD70B5002408
:1036B0000CE0002506E00020C44901EBC5010855D7
:1036C000681CC5B2802DF6DB601CC4B2082CF0DB90
:1036D000FFF7BAFF70BDF0B514460B46CF1701EBEC
:1036E0005777C7F3C702CF1701EB5777FF10A1EB4E
:1036F000C707FEB20123B340DDB24CB1B34B03EBBD
:10370000C0039B5C2B43B14F07EBC007BB541AE0CF
:10371000AE4B03EBC0039B5CDB43AC4F07EBC00736
:10372000BB54AA4B03EBC0039B5C2B43A74F07EB97
:10373000C007BB54A54B03EBC0039B5CDB43A34F0B
:1037400007EBC007BB54F0BD2DE9FE4F0746884686
:1037500092461C460197CDF80080082C02D14FF00C
:1037600006091FE02046E31704EB5373DB102146E4
:103770004FEAE47C04EB5C7C4FEAEC0CA4EBCC0C51
:10378000BCF1000F02D04FF0010C01E04FF0000C33
:103790006344224604EBD27C4FEA6C0C03FB0CF32F
:1037A00003F0FF09AAF12000C6B200255EE0082C54
:1037B00007D106EB4600864901EB400010F805B042
:1037C0001DE00C2C07D106EB4600824901EB80007E
:1037D00010F805B013E0102C05D17F4800EB06105F
:1037E00010F805B00BE0182C07D106EBC6007B499A
:1037F00001EB800010F805B001E0BDE8FE8F00206D
:1038000002901CE00BF0010028B1414638460C9AAA
:10381000FFF761FF09E00C9808B9012000E00020E3
:10382000024641463846FFF756FF4FEA6B0B08F158
:10383000010000F0FF080298401CC0B202900298FC
:103840000828DFDB781CC7B2082C0BD004EBD4713E
:103850004A100199791A8A4204D1019F00980830D0
:10386000C0B20090DDF80080681CC5B24D459EDBFB
:10387000FFF7EAFE00BFC0E710B50246012000E0F6
:1038800050430B00A1F10104E1B2F9D110BD2DE9C3
:10389000FF4F83B0064691461F46DDE9104A4FF0C0
:1038A000000B082C01D14FF0020B002532E0781BF1
:1038B000401EC1B20A20FFF7DFFFB9FBF0F00A217A
:1038C000B0FBF1F201FB1208B8F1000F0FD104EBCD
:1038D000D4710BEB610101FB0561C8B223463022B4
:1038E000CDF800A002940499FFF72EFF10E004EB3E
:1038F000D4710BEB610101FB0561C8B208F1300125
:10390000CAB22346CDF800A002940499FFF71CFF29
:10391000681CC5B2BD42CADB07B0BDE8F08F2DE917
:10392000F84306460F4614461D46DDF8208013E096
:10393000CDF8008022782B4639463046FFF704FF49
:10394000082D02D1B01DC6B205E0284605EBD071A6
:1039500006EB6101CEB2641C2078202802DB2078BF
:103960007E28E5DDBDE8F8832DE9FC4F0746884653
:1039700016461C46BB46CDF804802046E21704EBF1
:103980005272D2102146E31704EB5373DB10A4EB01
:10399000C3030BB1012300E000231A44624392B237
:1039A0000092002564E0102C05D10D4800EB461074
:1039B00010F805A02AE0182C16D106EBC60009491C
:1039C00001EBC00010F805A020E00000F505002084
:1039D000BEAB0008E6AD00085AB200084AB80008BD
:1039E000A6C5000806C70008202C05D1BD4800EB7D
:1039F000C61010F805A009E0402C05D1BA4800EB2C
:103A0000462010F805A001E0BDE8FC8F4FF000094A
:103A10001CE00AF0010028B1414638460B9AFFF736
:103A20005AFE09E00B9808B9012000E00020024688
:103A300041463846FFF74FFE4FEA6A0A08F1010097
:103A400000F0FF0809F1010000F0FF09B9F1080FCB
:103A5000DFDB781CC7B2A7EB0B00A04204D15F46A6
:103A600001980830C0B20190DDF80480681C85B26E
:103A70000098854297DB00BFC6E708B580468946B7
:103A80009246002600274BE04FB9102332461821FA
:103A90008020CDF800A0FFF767FF701CC6B2464536
:103AA00022D14FF0000B1AE0012410E000250AE0BB
:103AB0008E4800EBC400415D601E8C4A02EBC000E2
:103AC0004155681CC5B2082DF2DB601CC4B2902CB5
:103AD000ECDBFFF7B9FD0BF1010000F0FF0B4FEA43
:103AE00009105845E0DC0026781CC7B2102F00D121
:103AF0000027012410E000250AE07C4800EBC40008
:103B0000415D601E794A02EBC0004155681CC5B298
:103B1000082DF2DB601CC4B2902CECDBFFF794FDA7
:103B2000B2E72DE9FF4F05460E4617461C46DDF865
:103B300038904FF0000A0095B3462046E21704EB98
:103B40005272D2102146E31704EB5373DB10A4EB3F
:103B5000C3030BB1012300E000231A44D4B24FF099
:103B6000000845E0002003903BE00D9810F80A00A3
:103B700002900AF101001FFA80FA002001901DE076
:103B8000029800F0010028B14A4631462846FFF766
:103B9000A2FD0AE0B9F1000F01D1012000E00020F0
:103BA000024631462846FFF796FD029840100290E3
:103BB000701CC6B20198401CC0B201900198082840
:103BC000DEDB681CC5B20098281AB84204D1009DFB
:103BD0000BF1080000F0FF0B5E460398401CC0B2DA
:103BE00003900398B842C0DB08F1010000F0FF0821
:103BF000A045B7DBBDE8FF8F10B5C820FFF7AFF9D0
:103C00000021AE20FFF792FC00210846FFF78EFC52
:103C100000211020FFF78AFC00214020FFF786FCDE
:103C200000218120FFF782FC0021CF20FFF77EFCDE
:103C30000021A120FFF77AFC0021C820FFF776FCC5
:103C40000021A620FFF772FC0021A820FFF76EFCE0
:103C500000213F20FFF76AFC0021D320FFF766FC1C
:103C600000210846FFF762FC0021D520FFF75EFC2B
:103C700000218020FFF75AFC0021D920FFF756FCD5
:103C80000021F120FFF752FC0021DA20FFF74EFC63
:103C900000211220FFF74AFC0021DB20FFF746FC41
:103CA00000213020FFF742FC00212020FFF73EFCDE
:103CB00000210220FFF73AFC00218D20FFF736FC9F
:103CC00000211420FFF732FCFFF7F0FC0021AF20A9
:103CD000FFF72CFC0020FFF745FC0020FFF750FC0D
:103CE00010BD00004EC70008CEC70008F505002033
:103CF00000B587B001214FF40170FDF763FB4FF46D
:103D00000040FDF7C3FA0820ADF8040000208DF84C
:103D1000070001A93648FDF799F83648FCF780FD01
:103D2000002002908DF80C008DF80D004FF46020FB
:103D300004900020059001208DF8180002A92D485C
:103D4000FCF795FD01212B48FCF7BDFD2948FCF748
:103D5000DCFD00BF2748FCF7DDFD0028FAD125482F
:103D6000FCF7E2FD00BF2348FCF7E3FD0028FAD191
:103D700007B000BD10B504460723012221461D48A7
:103D8000FCF70DFE01211B48FCF7DDFD00BF022101
:103D90001848FCF749FF0028F9D01648FCF766FEE2
:103DA00010BD2DE9F04F85B00320FFF7E3FF019030
:103DB00005F0F6FF4FF066320F4BCDE9020106F039
:103DC00003F8804600220D4B05F0FEFF0646002258
:103DD0000B4B05F0F9FF044600220A4B05F042FEAA
:103DE000824605F097FF0490049805B0BDE8F08F77
:103DF000000801400024014066660A400000264099
:103E0000000059400000B04030B585B005460C4672
:103E100001210220FDF7E3FA01210820FDF7D2FA83
:103E20000120ADF8100028208DF8130003208DF834
:103E3000120004A96648FDF709F80220ADF8100049
:103E400010208DF8130003208DF8120004A960489B
:103E5000FCF7FCFFADF80850ADF804400020ADF8C9
:103E60000A00ADF8060001A95A48FDF769FD0820CF
:103E70005949088000204880012088800020C8809F
:103E800008815448FDF7EFFF1D208DF80000012048
:103E90008DF801008DF802008DF803006846FCF7EC
:103EA00056FC012209214B48FEF7C1F8012149487F
:103EB000FEF7A2F805B030BD10B5012047490860F3
:103EC0000F20FFF728F800204549C1F88401454834
:103ED000007800F08000E8B14248007800F03F0030
:103EE00041490860084600880004086008460068E8
:103EF0003E49098808443C49086008460068AA21F0
:103F000048434FF47A71B0FBF1F037490860002064
:103F10003449088010BD2F4910310888314909788B
:103F200001F0800100294ED100F00101D1B12D49ED
:103F3000097801F04001A9B12A49097801F03F014F
:103F40003F290AD12749098841F08001254A11807B
:103F50004FF6FF71254A118004E022490988491C67
:103F6000204A118000F0080169B31E49097801F068
:103F7000400199B11B49098841F08001194A11801B
:103F800014493C310988194A1180124920310988A5
:103F900021F400710F4A2032118014E00021114AEF
:103FA0001180124A11800F49098841F040010D4AE1
:103FB00011800021074A24321180111F098841F421
:103FC0000071121F11800021024A103211807047C7
:103FD000000C014000040040F609002084812142C9
:103FE0000080214292040020380400209404002024
:103FF00008B501210820FDF7E5F94FF47040ADF850
:10400000000010208DF8030003208DF8020069469F
:104010002A48FCF71BFF08BD30B589B005460C46A1
:10402000FFF7E6FF0121C802FDF7CCF901210420CA
:10403000FDF7C8F94FF41060ADF8200018208DF896
:10404000230003208DF8220008A91D48FCF7FEFE7E
:10405000ADF81850ADF814400020ADF81A00ADF8D6
:10406000160005A91748FDF76BFC6020ADF80400A9
:104070000120ADF806000020ADF80A00ADF80C00F4
:1040800001A91048FDF799FC01A90E48FDF76FFD45
:1040900001210C48FDF7BCFF08210A48FEF7DCF8B7
:1040A00008210848FEF7F7F801210648FEF7A4F8B2
:1040B00001210448FDF7A0FF09B030BD000C01400C
:1040C00000080140002C014000B587B001210846DE
:1040D000FDF785F901210420FDF774F90320ADF8FF
:1040E000000004208DF8030069466148FCF7AEFE2D
:1040F00004A8FDF751FF0020ADF810004FF6FF7047
:10410000ADF814000020ADF81600ADF8120004A9B7
:104110004FF08040FDF714FC00231A4603214FF0B6
:104120008040FEF71CF801A8FDF749FF0A20ADF812
:104130000C0001A94007FDF796FE01218807FEF754
:1041400021FA012211469007FDF771FF00214FF07F
:104150008040FEF7E5F901218807FDF74DFF07B024
:1041600000BD00B587B001210420FDF738F9012119
:104170000820FDF727F9C020ADF8000004208DF8D5
:10418000030069463B48FCF761FE04A8FDF704FF05
:104190000020ADF810004FF6FF70ADF814000020BD
:1041A000ADF81600ADF8120004A93348FDF7C8FBBE
:1041B00000231A4603213048FDF7D1FF01A8FDF77F
:1041C000FEFE0A20ADF80C0001A92B48FDF74BFEBE
:1041D00001212948FEF7D6F9012211462648FDF7AC
:1041E00026FF00212448FEF79BF901212248FDF714
:1041F00003FF07B000BD0146022904D003290BD0FC
:10420000042919D10FE04FF08042928C10B20022A5
:104210004FF080439A8411E0184A128810B20022AD
:10422000164B1A800AE0144A2432128810B2002277
:10423000114B24331A8001E0002000BF00BF7047FB
:104240000D48103000880C481030008820F0010024
:1042500009491031088070474FF08040008A4FF0C4
:104260008040008A20F001004FF0804108827047B2
:1042700000080140000C01400008004024040040F8
:1042800010B586B0044601210820FDF79BF80121F6
:104290008804FDF7A4F84FF48060ADF81400032003
:1042A0008DF8160018208DF8170005A94448FCF772
:1042B000CDFD4FF40060ADF8140004208DF8170018
:1042C00005A93F48FCF7C2FD27208DF8000000201B
:1042D0008DF8010001208DF802008DF8030068467A
:1042E000FCF735FA01940020ADF80800ADF80A009B
:1042F000ADF80C00ADF810000C20ADF80E0001A9CF
:104300003048FEF79AF9012240F225512D48FEF778
:104310002CFA01212B48FEF71CFA06B010BD10B58F
:1043200004460BE000BF80212648FEF7EDFA002886
:10433000F9D021782348FEF779FA641C2078002808
:10434000F0D110BD10B540F225511E48FEF7F2FA2B
:1043500010B31C48FEF76EFAC4B21B48008800F484
:104360000040C8B91848008800F4804060B10A2CA9
:1043700003D000201449088020E01348008840F44E
:1043800000401149088019E00D2C06D10E48008824
:1043900040F480400C49088010E00B480088C0F3CE
:1043A0000D000A490C5408480088401C0649088042
:1043B00008460088C72801DD0020088010BD0000E5
:1043C000000C01400048004098040020000A002032
:1043D0001FB501210846FCF7F5FF01210420FCF779
:1043E000F1FF4FF48050ADF80C0048208DF80F001D
:1043F00003A91248FCF72AFD0C210020FCF73CFE23
:104400004FF48050019000208DF808000C208DF8AA
:10441000090001208DF80A0001A8FCF737FC2820CC
:104420008DF8000002208DF8010001208DF80200B7
:104430008DF803006846FCF78AF91FBD00080140AB
:1044400008B501210920FCF7BDFF0121C448FCF794
:10445000CEFD1020ADF8000003208DF802002820CA
:104460008DF803006946BF48FCF7F0FC0820ADF862
:10447000000003208DF8020010208DF8030069462B
:10448000B848FCF7E3FC01210420FCF79BFF102057
:10449000ADF800008DF8030003208DF80200694696
:1044A000B148FCF7D3FC1821AE48FCF77EFD102183
:1044B000AD48FCF77AFD08BD00B585B0FFF7C0FF39
:1044C00000F08DF90021A948FDF7ABF80020ADF808
:1044D00000004FF48270ADF802000020ADF8040037
:1044E000ADF80600ADF808004FF40070ADF80A0012
:1044F0001820ADF80C000020ADF80E000720ADF834
:10450000100069469948FCF7E7FF01219748FDF73D
:1045100088F800209649086001209649C1F890016A
:1045200005B000BD2DE9F04107460D4616460020B6
:1045300091490860384600F02BF98046002405E0D8
:10454000FF2000F025F92855601CC4B2B442F7DB07
:104550000120894908604046BDE8F0812DE9F0411D
:1045600007460C461546002083490860384600F08F
:104570000FF98046002605E014F8010B00F008F959
:10458000701CC6B2AE42F7DB01207B490860404692
:10459000BDE8F0811CB579A103C9CDE9000108206F
:1045A00000F061F9052269463020FFF7D7FF0522A8
:1045B00069461020FFF7B6FF002406E01DF804004E
:1045C000A52800D003E0601CC4B2052CF6DB00BFB8
:1045D000052C01D001201CBD0020FCE770B505466C
:1045E0000C46002064490860284600F0D1F80646D1
:1045F000204600F0CDF801205E49C1F89001304618
:1046000070BD70B5044600205B490860204600F08C
:10461000BFF8FF2000F0BCF8054601205549C1F85D
:104620009001284670BD70B50546102000F01BF9BA
:1046300000204F49086020222946A020FFF78EFF66
:1046400001205049C1F88C0100BF49487C380068FE
:104650000028FAD10720FFF7D4FF0446214627207F
:10466000FFF7BCFF04F0100028B1FF21E120FFF7A5
:10467000B5FF102070BD04F0200008B12020F9E73C
:10468000FF20F7E770B50446102000F0ECF8072093
:10469000FFF7B7FF054629462720FFF79FFF05F0E4
:1046A000400050B1202221466120FFF73BFFFF214F
:1046B000E220FFF793FF002070BD0120FCE710B55A
:1046C00000202B49086005222F492A20FFF746FFCA
:1046D00001212120FFF782FF01212220FFF77EFF29
:1046E00028212520FFF77AFF20213120FFF776FFD0
:1046F0000F212620FFF772FF0F212020FFF76EFF0A
:1047000001202049C1F88C0110BD10B500201849C6
:10471000086005221D493020FFF720FF05221A49B5
:104720002A20FFF71BFF01212120FFF757FF01215E
:104730002220FFF753FF1A212420FFF74FFF2821E3
:104740002520FFF74BFF0F212620FFF747FF0E2103
:104750002020FFF743FF01200A49C1F88C0110BD5A
:1047600000023000000C0140000801400030014010
:104770008C8121420000214290012142A5A5A5A5DE
:10478000A500000000802142D3C90008CEC900085E
:1047900070B50546002405E0601CC4B2C82C01DDDC
:1047A000002070BD02213948FCF7BFFF0028F3D07C
:1047B00029463648FCF766FF002405E0601CC4B2B9
:1047C000C82C01DD0020ECE701213048FCF7ADFFEB
:1047D0000028F3D02D48FCF757FFC0B2E1E700B541
:1047E00087B001210420FCF7EDFD01210803FCF74F
:1047F000E9FDE020ADF8180018208DF81B0003201B
:104800008DF81A0006A92248FCF720FBE021204879
:10481000FCF7C9FB0020ADF804004FF48270ADF83E
:1048200006000020ADF808000220ADF80A000120C3
:10483000ADF80C004002ADF80E003820ADF81000C5
:104840000020ADF812000720ADF8140001A90F48B0
:10485000FCF742FE01210D48FCF7E3FEFF20FFF7C5
:1048600097FF07B000BD10B50446084800884FF612
:10487000C771084005490880084600882043088021
:1048800001210248FCF7CDFE10BD000000300140C0
:10489000000801400146002901DA484200E00846CC
:1048A000704700B503460A46002B07DD0120FE498C
:1048B00008600020FD49C1F8B00106E00020FA4977
:1048C00008600120F949C1F8B0011846FFF7E2FF7E
:1048D000F7490880002A08DD0120F3490831086003
:1048E0000020F249C1F8B80107E00020EE49083184
:1048F00008600120ED49C1F8B8011046FFF7CAFF72
:10490000EB490C39088000BD70B506460D46E949F3
:10491000304605F02BFF0CD3E749304606F026F869
:1049200007D3E6480078012803D040F2564085427C
:104930000DDA01240020DC49091D0860DB49C1F8BB
:10494000BC01D9490860D949C1F8B00100E0002490
:10495000204670BD00B502460B46D848007810B915
:104960000020D7490860D548007801283DD10A2A9F
:104970003BDA1846FFF78EFFD14909680844D04951
:10498000086008460068062808DD08460068B42864
:1049900004DA0020CB490870CB490870C848006889
:1049A000B4280ADDC6480068B0F5B47F05DA0120F6
:1049B000C54908700020C3490870C1480068B0F5B7
:1049C000B47F0ADDBE480068B0F5077F05DA002035
:1049D000BD4908700120BB490870B9480068B0F5AE
:1049E000077F02DD0020B649086000BD70B50646AD
:1049F0000C461546B148007808B9002070BDB34890
:104A0000008870B9B249304605F0B0FF09D2B1490B
:104A1000304605F0ABFE04D21CB915B90120AB49F4
:104A20000880AA480088012819D1AB480088401C9A
:104A300080B2A9490880322803DD00200880A349FC
:104A40000880032C0BDD032D09DD282C07DA282D27
:104A500005DA00209D49088008800120CEE700206B
:104A6000CCE72DE9F04107460E4614461D469B480B
:104A70000088E0B92046FFF70DFF02462846FFF701
:104A800009FF10441E2805DA95480088401C944907
:104A9000088002E0002092490880914800880A2896
:104AA00005DD01208D49088000208D4908808B4854
:104AB000008801281DD18B480088401C80B289499C
:104AC0000880C82803DD00200880844908808649C2
:104AD000384605F04BFF0CD28449304605F046FFBE
:104AE00007D28349304605F041FE02D202207B49BD
:104AF00008807A480088022816D17E480088401C29
:104B000080B27C490880642803DD00200880734956
:104B100008806019FFF7BEFE462805DD00206F49BA
:104B200008800120BDE8F0810020FBE7034618461D
:104B3000884200DD0846904200DA104670472DE9B1
:104B4000F04105466C4806686C48007801280FD192
:104B50006B48007805F0F6FD80466A48006880F0F2
:104B600000474146384605F0A3FC6749086013E05A
:104B70006648007801280CD16148007805F0E2FD14
:104B8000074639465F48006805F092FC5E490860B8
:104B900002E000205C4908605D480078012803D0ED
:104BA0005C480078012802D15B48046800E00024DA
:104BB00059480168284605F00DFE0746314652481F
:104BC000006805F007FE8046394605F003FC5349AE
:104BD00008600846006805F061FDBDE8F0812DE938
:104BE000FC5F0446894637480078012803D03648E0
:104BF0000078012803D14A484A49086002E04A483F
:104C0000484908604248007801280CD13C480078A7
:104C100005F098FD054629464248006805F048FC25
:104C20004249086016E03B48007801280FD134481B
:104C3000007805F087FD06463A48006880F0004598
:104C40003146284605F034FC3849086002E000206F
:104C50003649086004EB0901484205F05BFD344920
:104C600008603448006805F089FB0746324A334B38
:104C700005F0AAF8054604F013FE2E4908602C48FA
:104C8000006805F07BFB05462B4A2D4B05F09CF890
:104C9000074688462748006805F070FB82463A467A
:104CA000434604F02FFE4DE0B481214200802142B2
:104CB000402C0140000020C2000020421A040020C5
:104CC000DC0400203F04002040040020D804002021
:104CD000000010C100003041DA040020D0040020A0
:104CE000D2040020D40400200020CB46000098C14C
:104CF0000000A841D604002058040020170400201A
:104D000019040020CC040020C40400201804002052
:104D100015040020160400205C040020C8040020B4
:104D20000000F041C004002000004842B804002008
:104D3000B0040020B40400209A9999999999E93F08
:104D40009999C93FCDE9000104F0AAFDFE49086028
:104D500008460168FD48006805F03CFBFB49086017
:104D6000FB480168F948006805F034FBF749086022
:104D7000F849F648006805F0F9FD02D2F548F34914
:104D80000860F549F148006805F0F0FC02D2F248ED
:104D9000EE490860F1480168EC48006805F01AFD2A
:104DA0000746E948006880F00046ED480168304653
:104DB00005F010FD0546394605F014FEE949086086
:104DC000E9480168E9480068FFF79EFD012803D023
:104DD000E7480078012802D10020DC490860E1485A
:104DE000006805F05BFCBDE8FC9F2DE9F84F044628
:104DF0000D464FF07E51204605F0E9FD82462946DA
:104E0000002005F0EFFD0090DA480168009805F0F9
:104E1000E1FC8346D848006880F000495146484686
:104E200005F0D8FC8046594605F0DCFD074605F044
:104E300035FC06463046BDE8F88F70B53220FEF7E7
:104E4000CDFA0546012D07D1C948007808B90120DF
:104E500000E00020C6490870FEF72FFB0446012C35
:104E600007D1C648007808B9012000E00020C349F6
:104E7000087070BD2DE9F04F87B083468A465846CA
:104E800004F077FF0022BE4BCDE9000104F09CFF47
:104E900006460022BB4B04F0E5FD80460022BA4BDB
:104EA00004F0E0FD04460022B84B04F0DBFDCDE940
:104EB000020104F0F5FC0590059805F05FFA8046C4
:104EC000B34AB44B04F080FF06460022B24B04F014
:104ED0007BFF044604F0E4FCB0490860504604F04F
:104EE00048FF0022A64BCDE9000104F06DFF80468B
:104EF0000022A44B04F0B6FD06460022A24B04F0AB
:104F0000B1FD0022A14BCDE9020104F0ABFD044646
:104F100004F0C6FC0490049805F030FA06469C4A5A
:104F20009C4B04F051FF044600229B4B04F04CFFC5
:104F3000804604F0B5FC9A49086007B0BDE8F08FE0
:104F40002DE9F04F8DB08046002096490860B8F1F9
:104F5000010F1BD103F044FD9348006883490860AA
:104F60009249B1F9000005F0D5FB914908608F49DD
:104F7000B1F9040005F0CEFB8E4908608E49B1F905
:104F8000040005F0C7FB8D49086071E14421D02081
:104F9000FDF7BFFE83464321D020FDF7BAFE0BEBA1
:104FA0000020099005F0B6FB04464621D020FDF70D
:104FB000B0FE83464521D020FDF7ABFE0BEB002071
:104FC000099005F0A7FB07464821D020FDF7A1FE78
:104FD00083464721D020FDF79CFE0BEB0020099073
:104FE00005F098FB06463C21D020FDF792FE834653
:104FF0003B21D020FDF78DFE0BEB0020099005F042
:1050000089FB82463E21D020FDF783FE83463D2169
:10501000D020FDF77EFE0BEB0020099005F07AFB17
:1050200081464021D020FDF774FE83463F21D020E9
:10503000FDF76FFE0BEB0020099005F06BFB0546BA
:105040004FF08E41204605F091FC05D24FF08F4184
:10505000204605F0C7FC04464FF08E41384605F067
:1050600085FC05D24FF08F41384605F0BBFC074662
:105070004FF08E41304605F079FC05D24FF08F415C
:10508000304605F0AFFC06464FF08E41504605F025
:105090006DFC05D24FF08F41504605F0A3FC8246CF
:1050A0004FF08E41484605F061FC05D24FF08F412C
:1050B000484605F097FC81464FF08E41284605F0A2
:1050C00055FC05D24FF08F41284605F08BFC054674
:1050D00084F0004036490860284605F04FF9CDE9D4
:1050E0000201484605F04AF9CDE90001DDE9022355
:1050F00004F0F0FA0022324BCDE9040104F064FE22
:10510000234A244BCDE9060104F0ACFCCDE90801AB
:1051100004F0C6FB0B90284605F030F9CDE90201FA
:10512000504605F02BF9CDE90001DDE9022304F03A
:10513000D1FA0022224BCDE9040104F045FE144AC5
:10514000144BCDE906013DE0B4040020BC0400206E
:10515000B804002000401C4600401CC65404002037
:1051600050040020AC040020280400202C0400205F
:105170001A0400204C040020480400201B040020D6
:10518000000069400000104000003E4000002A403E
:10519000F1D4C853FB21094000C05040E004002076
:1051A000E404002024040020AC0500209805002021
:1051B00030040020340400209E0500204404002018
:1051C0000080664004F04EFCCDE9080104F068FB65
:1051D0000A90204605F0D2F84FF06632754BCDE9C3
:1051E000060104F03FFCCDE9080104F059FB044638
:1051F000384605F0C3F84FF066326E4BCDE9060134
:1052000004F030FCCDE9080104F04AFB07466A4887
:105210000078022810D121460B9800F0F1F880F0B8
:1052200000406649086039460A9800F029FA80F083
:1052300000406349086013E05F48007803280FD1FD
:1052400021460B9800F0F3F980F000405B490860BC
:1052500039460A9800F068FB80F000405849086021
:105260005648006857490860574806605748056027
:105270000DB0BDE8F08F2DE9F041554800680028D9
:105280007ED14FF48050534908605348007808B9E4
:10529000012000E000205049087047480078FFF7DF
:1052A0004FFE0220FEF7A7FF44420420FEF7A3FFB3
:1052B000804641462046FFF7DDFD4748007801283B
:1052C00022D1FEF76EFD4549086045480068401C44
:1052D0004349086043480068404909680844414917
:1052E00008603F48006864280BD1084600686421C4
:1052F00090FBF1F03C49086000203A4908603849C9
:1053000008600020BDE8F081FFF797FD374801688D
:105310002C480068FFF769FD054641462046FFF727
:105320005EFC064628480068FFF709FC0746A819F6
:1053300038442F490860A819C01B2E4908602E4A1E
:1053400051422B480068FFF7F1FB294908602A4ABF
:10535000514228480068FFF7E9FB264908604346A8
:1053600022461848016819480068FFF77AFB10B117
:10537000012022490870424621461248006800E098
:1053800016E0FFF733FB10B100201C4908704146BE
:105390002046FFF7DFFA144801680A480068FFF763
:1053A000B3FA28B91348016811480068FFF779FA81
:1053B0000020A7E76666304014040020AC050020FA
:1053C000A80500202C040020340400204404002000
:1053D0003001214214040140A80400209C04002054
:1053E000A0040020A4040020280400203004002091
:1053F0001C040020200400200CE5FFFF1A040020FC
:105400002DE9F05F05460C46FD4EFE4F4FF07C58EF
:105410004FF00109FC480168204605F0E3FA834695
:10542000FA480168584605F0D5F98246F8480168FF
:10543000504604F0CFFFF6490860F6484168304610
:1054400005F0D0FA8246F3488168504605F0CAFA62
:10545000F1490860EF48C06880F000404860ED48BE
:10546000C06880F0004088600846C7600868E74967
:10547000096805F0AFF98246E6480168504604F035
:10548000A9FFE4490860E4494868E049096805F073
:10549000A1F98246DF484168504604F09BFFDD4990
:1054A0004860DD498868D949096805F093F9824662
:1054B000D8488168504604F08DFFD6498860D649A7
:1054C000C868D249096805F085F98246D148C168A3
:1054D000504604F07FFFCF49C860CD480168284698
:1054E00005F080FACD490860484605F02BF9824660
:1054F000C8480168504605F06DF9C949086048463A
:1055000005F020F98246C3488168504605F062F9EB
:10551000C4490860484605F015F98346C04801684B
:10552000584605F057F98246414604F053FFBE49FC
:10553000086008460168BA48006804F0B9FFBB4932
:105540000860B9480168B748006804F0B1FFB8497D
:105550000860B3480068B7490860484605F0F2F8AB
:105560008246AC484168504605F034F9B2490860BB
:10557000B0480168AD48006805F02CF98246A5489E
:105580000168504605F023FAA2490860AA4801685C
:10559000A648006805F01EF982469E4841685046BC
:1055A00005F015FA9B494860A2480168A0480068C8
:1055B00005F010F9824697488168504605F007FAD1
:1055C000944988609C4801689948006805F002F990
:1055D00082469048C168504605F0F9F98D49C86087
:1055E0008E4801689148006805F0F4F882468848C2
:1055F0000168504604F0EEFE85490860874801685E
:105600008B48006805F0E6F882467F4801685046FE
:1056100004F0E0FE7C49086008460168204605F079
:10562000E1F9864908607A480068BDE8F09F2DE9F5
:10563000F05F05460C46824E74480168204605F02E
:10564000C9F883467F480168584604F0C3FE804687
:1056500031464FF07E5005F0C5F98246414605F0CF
:10566000B9F807463146284605F0B4F88146394670
:1056700004F0B0FE7349086008460068BDE8F09F7A
:105680002DE9F05F05460C465D4E5E4F4FF07C58AD
:105690004FF001096C480168204605F0A3F98346E4
:1056A0005A480168584605F095F8824667480168EF
:1056B000504604F08FFE65490860654841683046F1
:1056C00005F090F9824662488168504605F08AF9F3
:1056D000604908605E48C06880F0004048605C48EF
:1056E000C06880F0004088600846C7600868474985
:1056F000096805F06FF8824655480168504604F085
:1057000069FE53490860534948684049096805F0F3
:1057100061F882464E484168504604F05BFE4C49B1
:1057200048604C4988683949096805F053F8824651
:1057300047488168504604F04DFE45498860454918
:10574000C8683249096805F045F882464048C16892
:10575000504604F03FFE3E49C8603C480168284678
:1057600005F040F93C490860484604F0EBFF8246EA
:1057700037480168504605F02DF83849086048461A
:1057800004F0E0FF824632488168504605F022F876
:1057900033490860484604F0D5FF83462F48016826
:1057A000584605F017F88246414604F013FE2D498D
:1057B0000860084601682948006804F079FE2A4913
:1057C0000860284801682648006804F071FE2749EF
:1057D00008602248006826490860484604F0B2FF85
:1057E00082461B484168504604F0F4FF2149086096
:1057F0001F4801681C48006804F0ECFF82463BE04B
:105800006F12833AA69B443BF4040020E804002076
:10581000F004002018050020C80A0020F804002029
:10582000FC040020000500200405002008050020DD
:105830000C0500201005002014050020EC040020B9
:105840000AD7A33C2805002034050020300500209D
:1058500058050020D80A0020380500203C0500200B
:105860004005002044050020480500204C0500208C
:10587000500500205405002040480168504605F0BE
:10588000A6F83E4908603E4801683E48006804F0BA
:10589000A1FF824639484168504605F098F83749DB
:1058A0004860394801683948006804F093FF82462F
:1058B00032488168504605F08AF83049886030489F
:1058C00001683248006804F085FF82462B48C168B1
:1058D000504605F07CF82949C8602D4801682948E0
:1058E000006804F077FF82462A480168504604F0B9
:1058F00071FD28490860264801682448006804F0C2
:1059000069FF824624480168504604F063FD22493D
:10591000086008460168204605F064F81F490860E1
:105920001C480068BDE8F09F2DE9F05F05460C4675
:105930001B4E1C480168204604F04CFF83461A4861
:105940000168584604F046FD804631464FF07E50CF
:1059500005F048F88246414604F03CFF07463146D0
:10596000284604F037FF8146394604F033FD0E49DE
:10597000086008460068BDE8F09F00005805002058
:105980005405002048050020500500204C0500204B
:105990003805002030050020340500202C050020AB
:1059A0000AD7A33CE80400206805002038B5044667
:1059B000FB4890F82400C0B114B10220009001E02F
:1059C00000200090F64A1268D17BF54A52681078A0
:1059D0006B460122FDF7FEF810B14FF0FF3038BDE5
:1059E0009DF80010EE48417423E0ED48807A10B92C
:1059F0004FF0FF30F3E724B1E948407C08B10020C4
:105A0000EDE714B10120009001E000200090E44A8D
:105A10001268D17BE24A526810786B460122FDF78A
:105A2000D9F810B14FF0FF30D9E79DF80010DC48ED
:105A300041740020D3E738B5002419E0D848006845
:105A4000C07AA04204D0D6480068407DA04200D170
:105A50000CE0D349496808786B4601222146FDF7DE
:105A60001DF910B14FF0FF3038BD00BF601CC4B24B
:105A7000CB4840680079A042E0DC0020F4E770B534
:105A800004460D46C6480068C07AA04204D0C44807
:105A90000068407DA04202D14FF0FF3070BDC04889
:105AA00040680079A04202DC4FF0FF30F6E7BC49C5
:105AB000496808782B4601222146FDF7EFF8EDE70B
:105AC00038B50446B64890F82300A04201D1002022
:105AD00038BD14B13020009001E000200090B048A3
